{
  "contractName": "Crowdfunding",
  "abi": [
    {
      "constant": true,
      "inputs": [
        {
          "internalType": "address",
          "name": "",
          "type": "address"
        },
        {
          "internalType": "uint256",
          "name": "",
          "type": "uint256"
        }
      ],
      "name": "userProjectList",
      "outputs": [
        {
          "internalType": "contract Project",
          "name": "",
          "type": "address"
        }
      ],
      "payable": false,
      "stateMutability": "view",
      "type": "function"
    },
    {
      "constant": false,
      "inputs": [
        {
          "internalType": "address",
          "name": "_user",
          "type": "address"
        },
        {
          "internalType": "contract Project",
          "name": "_address",
          "type": "address"
        }
      ],
      "name": "createAnewContribution",
      "outputs": [],
      "payable": false,
      "stateMutability": "nonpayable",
      "type": "function"
    },
    {
      "constant": false,
      "inputs": [
        {
          "internalType": "string",
          "name": "_ProjectName",
          "type": "string"
        },
        {
          "internalType": "string",
          "name": "_ProjectDescription",
          "type": "string"
        },
        {
          "internalType": "uint256",
          "name": "_GoalAmount",
          "type": "uint256"
        },
        {
          "internalType": "uint256",
          "name": "_minimunContribution",
          "type": "uint256"
        },
        {
          "internalType": "uint256",
          "name": "durationInDays",
          "type": "uint256"
        },
        {
          "internalType": "string",
          "name": "_creatorName",
          "type": "string"
        },
        {
          "internalType": "string",
          "name": "_phoneNumber",
          "type": "string"
        }
      ],
      "name": "startProject",
      "outputs": [],
      "payable": false,
      "stateMutability": "nonpayable",
      "type": "function"
    },
    {
      "constant": true,
      "inputs": [],
      "name": "numberOfProjects",
      "outputs": [
        {
          "internalType": "uint256",
          "name": "",
          "type": "uint256"
        }
      ],
      "payable": false,
      "stateMutability": "view",
      "type": "function"
    },
    {
      "constant": true,
      "inputs": [],
      "name": "returnAllProjects",
      "outputs": [
        {
          "internalType": "contract Project[]",
          "name": "",
          "type": "address[]"
        }
      ],
      "payable": false,
      "stateMutability": "view",
      "type": "function"
    },
    {
      "constant": true,
      "inputs": [],
      "name": "getMyprojects",
      "outputs": [
        {
          "internalType": "contract Project[]",
          "name": "",
          "type": "address[]"
        }
      ],
      "payable": false,
      "stateMutability": "view",
      "type": "function"
    },
    {
      "constant": true,
      "inputs": [],
      "name": "getMyContributedProjects",
      "outputs": [
        {
          "internalType": "address[]",
          "name": "",
          "type": "address[]"
        }
      ],
      "payable": false,
      "stateMutability": "view",
      "type": "function"
    }
  ],
  "bytecode": "0x608060405234801561001057600080fd5b506138df806100206000396000f3fe60806040523480156200001157600080fd5b5060043610620000a5576000357c01000000000000000000000000000000000000000000000000000000009004806391a38fbb116200008057806391a38fbb146200010e578063b9e59fd81462000130578063d8111e701462000166578063db5e4c7f146200018657620000a5565b80631ea8644c14620000aa578063443dcc8114620000ca57806385b6e28e14620000ec575b600080fd5b620000c86004803603620000c29190810190620009a3565b620001a8565b005b620000d462000433565b604051620000e3919062000c84565b60405180910390f35b620000f662000500565b60405162000105919062000ca8565b60405180910390f35b6200011862000590565b60405162000127919062000ca8565b60405180910390f35b6200014e600480360362000148919081019062000962565b6200065d565b6040516200015d919062000ccc565b60405180910390f35b6200018460048036036200017e919081019062000921565b620006a9565b005b6200019062000875565b6040516200019f919062000da7565b60405180910390f35b60006201518086024201905060008c8c8c8c8c8c8733604051620001cc9062000881565b620001df98979695949392919062000d28565b604051809103906000f080158015620001fc573d6000803e3d6000fd5b5090508073ffffffffffffffffffffffffffffffffffffffff1663765ccb6b306040518263ffffffff167c010000000000000000000000000000000000000000000000000000000002815260040162000256919062000c67565b600060405180830381600087803b1580156200027157600080fd5b505af115801562000286573d6000803e3d6000fd5b5050505060008190806001815401808255809150509060018203906000526020600020016000909192909190916101000a81548173ffffffffffffffffffffffffffffffffffffffff021916908373ffffffffffffffffffffffffffffffffffffffff160217905550508073ffffffffffffffffffffffffffffffffffffffff16639628f805878787876040518563ffffffff167c01000000000000000000000000000000000000000000000000000000000281526004016200034d949392919062000ce9565b600060405180830381600087803b1580156200036857600080fd5b505af11580156200037d573d6000803e3d6000fd5b50505050600160003373ffffffffffffffffffffffffffffffffffffffff1673ffffffffffffffffffffffffffffffffffffffff1681526020019081526020016000208190806001815401808255809150509060018203906000526020600020016000909192909190916101000a81548173ffffffffffffffffffffffffffffffffffffffff021916908373ffffffffffffffffffffffffffffffffffffffff1602179055505050505050505050505050505050565b6060600360003373ffffffffffffffffffffffffffffffffffffffff1673ffffffffffffffffffffffffffffffffffffffff168152602001908152602001600020805480602002602001604051908101604052809291908181526020018280548015620004f657602002820191906000526020600020905b8160009054906101000a900473ffffffffffffffffffffffffffffffffffffffff1673ffffffffffffffffffffffffffffffffffffffff1681526020019060010190808311620004ab575b5050505050905090565b606060008054806020026020016040519081016040528092919081815260200182805480156200058657602002820191906000526020600020905b8160009054906101000a900473ffffffffffffffffffffffffffffffffffffffff1673ffffffffffffffffffffffffffffffffffffffff16815260200190600101908083116200053b575b5050505050905090565b6060600160003373ffffffffffffffffffffffffffffffffffffffff1673ffffffffffffffffffffffffffffffffffffffff1681526020019081526020016000208054806020026020016040519081016040528092919081815260200182805480156200065357602002820191906000526020600020905b8160009054906101000a900473ffffffffffffffffffffffffffffffffffffffff1673ffffffffffffffffffffffffffffffffffffffff168152602001906001019080831162000608575b5050505050905090565b600160205281600052604060002081815481106200067757fe5b906000526020600020016000915091509054906101000a900473ffffffffffffffffffffffffffffffffffffffff1681565b600260008373ffffffffffffffffffffffffffffffffffffffff1673ffffffffffffffffffffffffffffffffffffffff16815260200190815260200160002060008273ffffffffffffffffffffffffffffffffffffffff1673ffffffffffffffffffffffffffffffffffffffff16815260200190815260200160002060009054906101000a900460ff1662000871576001600260008473ffffffffffffffffffffffffffffffffffffffff1673ffffffffffffffffffffffffffffffffffffffff16815260200190815260200160002060008373ffffffffffffffffffffffffffffffffffffffff1673ffffffffffffffffffffffffffffffffffffffff16815260200190815260200160002060006101000a81548160ff021916908315150217905550600360008373ffffffffffffffffffffffffffffffffffffffff1673ffffffffffffffffffffffffffffffffffffffff1681526020019081526020016000208190806001815401808255809150509060018203906000526020600020016000909192909190916101000a81548173ffffffffffffffffffffffffffffffffffffffff021916908373ffffffffffffffffffffffffffffffffffffffff160217905550505b5050565b60008080549050905090565b61296a8062000f3383390190565b600081359050620008a08162000ee4565b92915050565b600081359050620008b78162000efe565b92915050565b60008083601f840112620008d057600080fd5b8235905067ffffffffffffffff811115620008ea57600080fd5b6020830191508360018202830111156200090357600080fd5b9250929050565b6000813590506200091b8162000f18565b92915050565b600080604083850312156200093557600080fd5b600062000945858286016200088f565b92505060206200095885828601620008a6565b9150509250929050565b600080604083850312156200097657600080fd5b600062000986858286016200088f565b925050602062000999858286016200090a565b9150509250929050565b600080600080600080600080600080600060e08c8e031215620009c557600080fd5b60008c013567ffffffffffffffff811115620009e057600080fd5b620009ee8e828f01620008bd565b9b509b505060208c013567ffffffffffffffff81111562000a0e57600080fd5b62000a1c8e828f01620008bd565b9950995050604062000a318e828f016200090a565b975050606062000a448e828f016200090a565b965050608062000a578e828f016200090a565b95505060a08c013567ffffffffffffffff81111562000a7557600080fd5b62000a838e828f01620008bd565b945094505060c08c013567ffffffffffffffff81111562000aa357600080fd5b62000ab18e828f01620008bd565b92509250509295989b509295989b9093969950565b600062000ad4838362000b0b565b60208301905092915050565b600062000aee838362000c01565b60208301905092915050565b62000b058162000e4a565b82525050565b62000b168162000e36565b82525050565b62000b278162000e36565b82525050565b600062000b3a8262000de4565b62000b46818562000e14565b935062000b538362000dc4565b8060005b8381101562000b8a57815162000b6e888262000ac6565b975062000b7b8362000dfa565b92505060018101905062000b57565b5085935050505092915050565b600062000ba48262000def565b62000bb0818562000e14565b935062000bbd8362000dd4565b8060005b8381101562000bf457815162000bd8888262000ae0565b975062000be58362000e07565b92505060018101905062000bc1565b5085935050505092915050565b62000c0c8162000e9c565b82525050565b62000c1d8162000e9c565b82525050565b600062000c31838562000e25565b935062000c4083858462000ec4565b62000c4b8362000ed3565b840190509392505050565b62000c618162000e92565b82525050565b600060208201905062000c7e600083018462000b1c565b92915050565b6000602082019050818103600083015262000ca0818462000b2d565b905092915050565b6000602082019050818103600083015262000cc4818462000b97565b905092915050565b600060208201905062000ce3600083018462000c12565b92915050565b6000604082019050818103600083015262000d0681868862000c23565b9050818103602083015262000d1d81848662000c23565b905095945050505050565b600060c082019050818103600083015262000d45818a8c62000c23565b9050818103602083015262000d5c81888a62000c23565b905062000d6d604083018762000c56565b62000d7c606083018662000c56565b62000d8b608083018562000c56565b62000d9a60a083018462000afa565b9998505050505050505050565b600060208201905062000dbe600083018462000c56565b92915050565b6000819050602082019050919050565b6000819050602082019050919050565b600081519050919050565b600081519050919050565b6000602082019050919050565b6000602082019050919050565b600082825260208201905092915050565b600082825260208201905092915050565b600062000e438262000e72565b9050919050565b600062000e578262000e72565b9050919050565b600062000e6b8262000e36565b9050919050565b600073ffffffffffffffffffffffffffffffffffffffff82169050919050565b6000819050919050565b600062000ea98262000eb0565b9050919050565b600062000ebd8262000e72565b9050919050565b82818337600083830152505050565b6000601f19601f8301169050919050565b62000eef8162000e36565b811462000efb57600080fd5b50565b62000f098162000e5e565b811462000f1557600080fd5b50565b62000f238162000e92565b811462000f2f57600080fd5b5056fe60806040523480156200001157600080fd5b506040516200296a3803806200296a833981810160405262000037919081019062000239565b85600790805190602001906200004f92919062000100565b5084600890805190602001906200006892919062000100565b508360098190555082600b819055506000600a81905550816006819055506000600c60006101000a81548160ff02191690836003811115620000a657fe5b021790555080600260006101000a81548173ffffffffffffffffffffffffffffffffffffffff021916908373ffffffffffffffffffffffffffffffffffffffff1602179055506000600f8190555050505050505062000404565b828054600181600116156101000203166002900490600052602060002090601f016020900481019282601f106200014357805160ff191683800117855562000174565b8280016001018555821562000174579182015b828111156200017357825182559160200191906001019062000156565b5b50905062000183919062000187565b5090565b620001ac91905b80821115620001a85760008160009055506001016200018e565b5090565b90565b600081519050620001c081620003d0565b92915050565b600082601f830112620001d857600080fd5b8151620001ef620001e9826200032f565b62000301565b915080825260208301602083018583830111156200020c57600080fd5b620002198382846200039a565b50505092915050565b6000815190506200023381620003ea565b92915050565b60008060008060008060c087890312156200025357600080fd5b600087015167ffffffffffffffff8111156200026e57600080fd5b6200027c89828a01620001c6565b965050602087015167ffffffffffffffff8111156200029a57600080fd5b620002a889828a01620001c6565b9550506040620002bb89828a0162000222565b9450506060620002ce89828a0162000222565b9350506080620002e189828a0162000222565b92505060a0620002f489828a01620001af565b9150509295509295509295565b6000604051905081810181811067ffffffffffffffff821117156200032557600080fd5b8060405250919050565b600067ffffffffffffffff8211156200034757600080fd5b601f19601f8301169050602081019050919050565b6000620003698262000370565b9050919050565b600073ffffffffffffffffffffffffffffffffffffffff82169050919050565b6000819050919050565b60005b83811015620003ba5780820151818401526020810190506200039d565b83811115620003ca576000848401525b50505050565b620003db816200035c565b8114620003e757600080fd5b50565b620003f58162000390565b81146200040157600080fd5b50565b61255680620004146000396000f3fe6080604052600436106101ea576000357c010000000000000000000000000000000000000000000000000000000090048063765ccb6b11610114578063c19d93fb116100b2578063d5f9e6c711610081578063d5f9e6c714610677578063e25c3f65146106a2578063e82a2f86146106ac578063ea25213f146106d7576101ea565b8063c19d93fb146105cb578063c2052403146105f6578063c452695f14610621578063ce845d1d1461064c576101ea565b80639628f805116100ee5780639628f8051461050f578063a7f3371514610538578063b2d5ae4414610563578063be0f63f71461058e576101ea565b8063765ccb6b146104a45780637a84d233146104cd57806386f32586146104f8576101ea565b80634377cf651161018c5780634ddd0c401161015b5780634ddd0c40146103f85780636f9fb98a14610423578063747f33801461044e5780637569b3d714610479576101ea565b80634377cf651461033857806344ab323b14610363578063459869721461038e5780634c4cea5a146103cd576101ea565b806337f944cc116101c857806337f944cc1461027057806338e771ab1461029b5780634051ddac146102c657806342e94c90146102fb576101ea565b806302d05d3f146101ef5780630b75b25d1461021a5780631f6f90bd14610245575b600080fd5b3480156101fb57600080fd5b506102046106e1565b6040516102119190612025565b60405180910390f35b34801561022657600080fd5b5061022f610707565b60405161023c919061216d565b60405180910390f35b34801561025157600080fd5b5061025a61072d565b60405161026791906121a3565b60405180910390f35b34801561027c57600080fd5b506102856107cb565b6040516102929190612265565b60405180910390f35b3480156102a757600080fd5b506102b06107d1565b6040516102bd9190612152565b60405180910390f35b3480156102d257600080fd5b506102db610936565b6040516102f29b9a99989796959493929190612069565b60405180910390f35b34801561030757600080fd5b50610322600480360361031d9190810190611bd7565b610c25565b60405161032f9190612265565b60405180910390f35b34801561034457600080fd5b5061034d610c3d565b60405161035a9190612265565b60405180910390f35b34801561036f57600080fd5b50610378610c43565b6040516103859190612265565b60405180910390f35b34801561039a57600080fd5b506103b560048036036103b09190810190611c6c565b610c49565b6040516103c493929190612280565b60405180910390f35b3480156103d957600080fd5b506103e2610d18565b6040516103ef9190612265565b60405180910390f35b34801561040457600080fd5b5061040d610d1e565b60405161041a91906121a3565b60405180910390f35b34801561042f57600080fd5b50610438610dbc565b6040516104459190612265565b60405180910390f35b34801561045a57600080fd5b50610463610ddb565b60405161047091906121a3565b60405180910390f35b34801561048557600080fd5b5061048e610e79565b60405161049b9190612265565b60405180910390f35b3480156104b057600080fd5b506104cb60048036036104c69190810190611bd7565b610e83565b005b3480156104d957600080fd5b506104e2610ec7565b6040516104ef9190612152565b60405180910390f35b34801561050457600080fd5b5061050d610fa2565b005b34801561051b57600080fd5b5061053660048036036105319190810190611c00565b611008565b005b34801561054457600080fd5b5061054d61103a565b60405161055a9190612265565b60405180910390f35b34801561056f57600080fd5b50610578611040565b6040516105859190612152565b60405180910390f35b34801561059a57600080fd5b506105b560048036036105b09190810190611c95565b611260565b6040516105c29190612152565b60405180910390f35b3480156105d757600080fd5b506105e061141c565b6040516105ed9190612188565b60405180910390f35b34801561060257600080fd5b5061060b61142f565b6040516106189190612152565b60405180910390f35b34801561062d57600080fd5b5061063661159c565b6040516106439190612152565b60405180910390f35b34801561065857600080fd5b506106616115f6565b60405161066e9190612265565b60405180910390f35b34801561068357600080fd5b5061068c6115fc565b60405161069991906121a3565b60405180910390f35b6106aa61169a565b005b3480156106b857600080fd5b506106c16116f6565b6040516106ce9190612130565b60405180910390f35b6106df61180b565b005b600260009054906101000a900473ffffffffffffffffffffffffffffffffffffffff1681565b600160009054906101000a900473ffffffffffffffffffffffffffffffffffffffff1681565b60038054600181600116156101000203166002900480601f0160208091040260200160405190810160405280929190818152602001828054600181600116156101000203166002900480156107c35780601f10610798576101008083540402835291602001916107c3565b820191906000526020600020905b8154815290600101906020018083116107a657829003601f168201915b505050505081565b60065481565b600080600090505b600e8054905081101561092e576000600e82815481106107f557fe5b9060005260206000200160009054906101000a900473ffffffffffffffffffffffffffffffffffffffff1690506000600d60008373ffffffffffffffffffffffffffffffffffffffff1673ffffffffffffffffffffffffffffffffffffffff168152602001908152602001600020549050600081111561091f578173ffffffffffffffffffffffffffffffffffffffff166108fc829081150290604051600060405180830381858888f193505050501580156108b5573d6000803e3d6000fd5b5080600a600082825403925050819055506000600d60008473ffffffffffffffffffffffffffffffffffffffff1673ffffffffffffffffffffffffffffffffffffffff16815260200190815260200160002081905550600f60008154809291906001900391905055505b505080806001019150506107d9565b506001905090565b600060608060006060806000806000806000600260009054906101000a900473ffffffffffffffffffffffffffffffffffffffff166003600460065460076008600954600a54600b54600c60009054906101000a900460ff16600f54898054600181600116156101000203166002900480601f016020809104026020016040519081016040528092919081815260200182805460018160011615610100020316600290048015610a275780601f106109fc57610100808354040283529160200191610a27565b820191906000526020600020905b815481529060010190602001808311610a0a57829003601f168201915b50505050509950888054600181600116156101000203166002900480601f016020809104026020016040519081016040528092919081815260200182805460018160011615610100020316600290048015610ac35780601f10610a9857610100808354040283529160200191610ac3565b820191906000526020600020905b815481529060010190602001808311610aa657829003601f168201915b50505050509850868054600181600116156101000203166002900480601f016020809104026020016040519081016040528092919081815260200182805460018160011615610100020316600290048015610b5f5780601f10610b3457610100808354040283529160200191610b5f565b820191906000526020600020905b815481529060010190602001808311610b4257829003601f168201915b50505050509650858054600181600116156101000203166002900480601f016020809104026020016040519081016040528092919081815260200182805460018160011615610100020316600290048015610bfb5780601f10610bd057610100808354040283529160200191610bfb565b820191906000526020600020905b815481529060010190602001808311610bde57829003601f168201915b505050505095509a509a509a509a509a509a509a509a509a509a509a50909192939495969798999a565b600d6020528060005260406000206000915090505481565b600f5481565b60095481565b60008181548110610c5657fe5b9060005260206000209060030201600091509050806000015490806001018054600181600116156101000203166002900480601f016020809104026020016040519081016040528092919081815260200182805460018160011615610100020316600290048015610d085780601f10610cdd57610100808354040283529160200191610d08565b820191906000526020600020905b815481529060010190602001808311610ceb57829003601f168201915b5050505050908060020154905083565b60055481565b60088054600181600116156101000203166002900480601f016020809104026020016040519081016040528092919081815260200182805460018160011615610100020316600290048015610db45780601f10610d8957610100808354040283529160200191610db4565b820191906000526020600020905b815481529060010190602001808311610d9757829003601f168201915b505050505081565b60003073ffffffffffffffffffffffffffffffffffffffff1631905090565b60048054600181600116156101000203166002900480601f016020809104026020016040519081016040528092919081815260200182805460018160011615610100020316600290048015610e715780601f10610e4657610100808354040283529160200191610e71565b820191906000526020600020905b815481529060010190602001808311610e5457829003601f168201915b505050505081565b6000600f54905090565b80600160006101000a81548173ffffffffffffffffffffffffffffffffffffffff021916908373ffffffffffffffffffffffffffffffffffffffff16021790555050565b6000600260009054906101000a900473ffffffffffffffffffffffffffffffffffffffff1673ffffffffffffffffffffffffffffffffffffffff163373ffffffffffffffffffffffffffffffffffffffff1614610f59576040517f08c379a0000000000000000000000000000000000000000000000000000000008152600401610f5090612205565b60405180910390fd5b6003600c60006101000a81548160ff02191690836003811115610f7857fe5b021790555060011515610f896107d1565b15151415610f9a5760019050610f9f565b600090505b90565b600954600a5410610fd6576002600c60006101000a81548160ff02191690836003811115610fcc57fe5b0217905550611006565b600654421115611005576001600c60006101000a81548160ff02191690836003811115610fff57fe5b02179055505b5b565b816003908051906020019061101e929190611a13565b508060049080519060200190611035929190611a13565b505050565b600b5481565b600080600d60003373ffffffffffffffffffffffffffffffffffffffff1673ffffffffffffffffffffffffffffffffffffffff16815260200190815260200160002054116110c3576040517f08c379a00000000000000000000000000000000000000000000000000000000081526004016110ba906121e5565b60405180910390fd5b600060038111156110d057fe5b600c60009054906101000a900460ff1660038111156110eb57fe5b14156110f657600080fd5b6002600381111561110357fe5b600c60009054906101000a900460ff16600381111561111e57fe5b141561112957600080fd5b6000600d60003373ffffffffffffffffffffffffffffffffffffffff1673ffffffffffffffffffffffffffffffffffffffff1681526020019081526020016000205490506000600d60003373ffffffffffffffffffffffffffffffffffffffff1673ffffffffffffffffffffffffffffffffffffffff168152602001908152602001600020819055503373ffffffffffffffffffffffffffffffffffffffff166108fc829081150290604051600060405180830381858888f193505050506112395780600d60003373ffffffffffffffffffffffffffffffffffffffff1673ffffffffffffffffffffffffffffffffffffffff16815260200190815260200160002081905550600091505061125d565b80600a5403600a81905550600f600081548092919060019003919050555060019150505b90565b6000600260009054906101000a900473ffffffffffffffffffffffffffffffffffffffff1673ffffffffffffffffffffffffffffffffffffffff163373ffffffffffffffffffffffffffffffffffffffff16146112f2576040517f08c379a00000000000000000000000000000000000000000000000000000000081526004016112e990612225565b60405180910390fd5b600260038111156112ff57fe5b600c60009054906101000a900460ff16600381111561131a57fe5b1461132457600080fd5b600260009054906101000a900473ffffffffffffffffffffffffffffffffffffffff1673ffffffffffffffffffffffffffffffffffffffff166108fc849081150290604051600060405180830381858888f193505050501561141157611388611a93565b6040518060600160405280858152602001848152602001428152509050600081908060018154018082558091505090600182039060005260206000209060030201600090919290919091506000820151816000015560208201518160010190805190602001906113f9929190611ab4565b50604082015181600201555050506001915050611416565b600090505b92915050565b600c60009054906101000a900460ff1681565b6000600260009054906101000a900473ffffffffffffffffffffffffffffffffffffffff1673ffffffffffffffffffffffffffffffffffffffff163373ffffffffffffffffffffffffffffffffffffffff16146114c1576040517f08c379a00000000000000000000000000000000000000000000000000000000081526004016114b890612225565b60405180910390fd5b600260038111156114ce57fe5b600c60009054906101000a900460ff1660038111156114e957fe5b146114f357600080fd5b6000600a5490506000600a81905550600260009054906101000a900473ffffffffffffffffffffffffffffffffffffffff1673ffffffffffffffffffffffffffffffffffffffff166108fc829081150290604051600060405180830381858888f1935050505015611568576001915050611599565b80600a819055506002600c60006101000a81548160ff0219169083600381111561158e57fe5b021790555060009150505b90565b600080600d60003373ffffffffffffffffffffffffffffffffffffffff1673ffffffffffffffffffffffffffffffffffffffff1681526020019081526020016000205411156115ee57600190506115f3565b600090505b90565b600a5481565b60078054600181600116156101000203166002900480601f0160208091040260200160405190810160405280929190818152602001828054600181600116156101000203166002900480156116925780601f1061166757610100808354040283529160200191611692565b820191906000526020600020905b81548152906001019060200180831161167557829003601f168201915b505050505081565b600260009054906101000a900473ffffffffffffffffffffffffffffffffffffffff1673ffffffffffffffffffffffffffffffffffffffff163373ffffffffffffffffffffffffffffffffffffffff16146116f457600080fd5b565b60606000805480602002602001604051908101604052809291908181526020016000905b82821015611802578382906000526020600020906003020160405180606001604052908160008201548152602001600182018054600181600116156101000203166002900480601f0160208091040260200160405190810160405280929190818152602001828054600181600116156101000203166002900480156117e05780601f106117b5576101008083540402835291602001916117e0565b820191906000526020600020905b8154815290600101906020018083116117c357829003601f168201915b505050505081526020016002820154815250508152602001906001019061171a565b50505050905090565b6000600381111561181857fe5b600c60009054906101000a900460ff16600381111561183357fe5b14611873576040517f08c379a000000000000000000000000000000000000000000000000000000000815260040161186a906121c5565b60405180910390fd5b600b5434116118b7576040517f08c379a00000000000000000000000000000000000000000000000000000000081526004016118ae90612245565b60405180910390fd5b34600d60003373ffffffffffffffffffffffffffffffffffffffff1673ffffffffffffffffffffffffffffffffffffffff1681526020019081526020016000205401600d60003373ffffffffffffffffffffffffffffffffffffffff1673ffffffffffffffffffffffffffffffffffffffff1681526020019081526020016000208190555034600a60008282540192505081905550600f60008154809291906001019190505550600160009054906101000a900473ffffffffffffffffffffffffffffffffffffffff1673ffffffffffffffffffffffffffffffffffffffff1663d8111e7033306040518363ffffffff167c01000000000000000000000000000000000000000000000000000000000281526004016119d7929190612040565b600060405180830381600087803b1580156119f157600080fd5b505af1158015611a05573d6000803e3d6000fd5b50505050611a11610fa2565b565b828054600181600116156101000203166002900490600052602060002090601f016020900481019282601f10611a5457805160ff1916838001178555611a82565b82800160010185558215611a82579182015b82811115611a81578251825591602001919060010190611a66565b5b509050611a8f9190611b34565b5090565b60405180606001604052806000815260200160608152602001600081525090565b828054600181600116156101000203166002900490600052602060002090601f016020900481019282601f10611af557805160ff1916838001178555611b23565b82800160010185558215611b23579182015b82811115611b22578251825591602001919060010190611b07565b5b509050611b309190611b34565b5090565b611b5691905b80821115611b52576000816000905550600101611b3a565b5090565b90565b600081359050611b68816124e5565b92915050565b600082601f830112611b7f57600080fd5b8135611b92611b8d826122eb565b6122be565b91508082526020830160208301858383011115611bae57600080fd5b611bb9838284612485565b50505092915050565b600081359050611bd1816124fc565b92915050565b600060208284031215611be957600080fd5b6000611bf784828501611b59565b91505092915050565b60008060408385031215611c1357600080fd5b600083013567ffffffffffffffff811115611c2d57600080fd5b611c3985828601611b6e565b925050602083013567ffffffffffffffff811115611c5657600080fd5b611c6285828601611b6e565b9150509250929050565b600060208284031215611c7e57600080fd5b6000611c8c84828501611bc2565b91505092915050565b60008060408385031215611ca857600080fd5b6000611cb685828601611bc2565b925050602083013567ffffffffffffffff811115611cd357600080fd5b611cdf85828601611b6e565b9150509250929050565b6000611cf58383611fb7565b905092915050565b611d06816123f5565b82525050565b611d158161239a565b82525050565b6000611d2682612327565b611d308185612355565b935083602082028501611d4285612317565b8060005b85811015611d7e5784840389528151611d5f8582611ce9565b9450611d6a83612348565b925060208a01995050600181019050611d46565b50829750879550505050505092915050565b611d99816123ac565b82525050565b611da881612407565b82525050565b611db78161242b565b82525050565b611dc68161244f565b82525050565b6000611dd78261233d565b611de18185612377565b9350611df1818560208601612494565b611dfa816124c7565b840191505092915050565b6000611e1082612332565b611e1a8185612366565b9350611e2a818560208601612494565b611e33816124c7565b840191505092915050565b6000611e4982612332565b611e538185612377565b9350611e63818560208601612494565b611e6c816124c7565b840191505092915050565b6000611e84601e83612377565b91507f4e6f74207265637620616e79206e657720636f6e747269627574696f6e7300006000830152602082019050919050565b6000611ec4601a83612377565b91507f796f75206469646e277420636f6e7472696275746564207965740000000000006000830152602082019050919050565b6000611f04601483612377565b91507f596f7572206e6f74207468652063726561746f720000000000000000000000006000830152602082019050919050565b6000611f44601483612377565b91507f796f7572206e6f74207468652063726561746f720000000000000000000000006000830152602082019050919050565b6000611f84602083612377565b91507f73686f756c6420626520677265617465727468616e206d696e20616d6f756e746000830152602082019050919050565b6000606083016000830151611fcf6000860182612007565b5060208301518482036020860152611fe78282611e05565b9150506040830151611ffc6040860182612007565b508091505092915050565b612010816123eb565b82525050565b61201f816123eb565b82525050565b600060208201905061203a6000830184611d0c565b92915050565b60006040820190506120556000830185611cfd565b6120626020830184611dae565b9392505050565b60006101608201905061207f600083018e611d0c565b8181036020830152612091818d611dcc565b905081810360408301526120a5818c611dcc565b90506120b4606083018b612016565b81810360808301526120c6818a611dcc565b905081810360a08301526120da8189611dcc565b90506120e960c0830188612016565b6120f660e0830187612016565b612104610100830186612016565b612112610120830185611dbd565b612120610140830184612016565b9c9b505050505050505050505050565b6000602082019050818103600083015261214a8184611d1b565b905092915050565b60006020820190506121676000830184611d90565b92915050565b60006020820190506121826000830184611d9f565b92915050565b600060208201905061219d6000830184611dbd565b92915050565b600060208201905081810360008301526121bd8184611e3e565b905092915050565b600060208201905081810360008301526121de81611e77565b9050919050565b600060208201905081810360008301526121fe81611eb7565b9050919050565b6000602082019050818103600083015261221e81611ef7565b9050919050565b6000602082019050818103600083015261223e81611f37565b9050919050565b6000602082019050818103600083015261225e81611f77565b9050919050565b600060208201905061227a6000830184612016565b92915050565b60006060820190506122956000830186612016565b81810360208301526122a78185611e3e565b90506122b66040830184612016565b949350505050565b6000604051905081810181811067ffffffffffffffff821117156122e157600080fd5b8060405250919050565b600067ffffffffffffffff82111561230257600080fd5b601f19601f8301169050602081019050919050565b6000819050602082019050919050565b600081519050919050565b600081519050919050565b600081519050919050565b6000602082019050919050565b600082825260208201905092915050565b600082825260208201905092915050565b600082825260208201905092915050565b6000612393826123cb565b9050919050565b60006123a5826123cb565b9050919050565b60008115159050919050565b60008190506123c6826124d8565b919050565b600073ffffffffffffffffffffffffffffffffffffffff82169050919050565b6000819050919050565b600061240082612461565b9050919050565b600061241282612419565b9050919050565b6000612424826123cb565b9050919050565b60006124368261243d565b9050919050565b6000612448826123cb565b9050919050565b600061245a826123b8565b9050919050565b600061246c82612473565b9050919050565b600061247e826123cb565b9050919050565b82818337600083830152505050565b60005b838110156124b2578082015181840152602081019050612497565b838111156124c1576000848401525b50505050565b6000601f19601f8301169050919050565b600481106124e257fe5b50565b6124ee81612388565b81146124f957600080fd5b50565b612505816123eb565b811461251057600080fd5b5056fea365627a7a72315820105e6d8d939c1503dded137a87750656e273664005ea288c4d7a567e2f5bd3c46c6578706572696d656e74616cf564736f6c63430005100040a365627a7a723158208252d9a84b9aed73a992fbfddda78ea1e6b17811388bcd3649afc45aa830f2716c6578706572696d656e74616cf564736f6c63430005100040",
  "source": "pragma solidity 0.5.16;\npragma experimental ABIEncoderV2;\n\n// import 'https://github.com/OpenZeppelin/openzeppelin-contracts/blob/master/contracts/math/SafeMath.sol';\n\ncontract Crowdfunding {\n    Project[] private projects;\n    mapping(address => Project[]) public userProjectList;\n\n    //stroing details about the investors contributed project and their contribution amount\n\n    // first address -> user address, second -> project address , uint256 -> contribution\n    mapping(address => mapping(address => bool))\n        internal investorContributionsMAP; // it used only for checking purpose if this record already exist or not\n    mapping(address => address[]) internal investorContributions;\n\n    function createAnewContribution(address _user, Project _address) public {\n        if (!investorContributionsMAP[_user][address(_address)]) {\n            investorContributionsMAP[_user][address(_address)] = true;\n            investorContributions[_user].push(address(_address));\n        }\n    }\n\n    function startProject(\n        string calldata _ProjectName,\n        string calldata _ProjectDescription,\n        uint256 _GoalAmount,\n        uint256 _minimunContribution,\n        uint256 durationInDays,\n        string calldata _creatorName,\n        string calldata _phoneNumber\n    ) external {\n        uint256 raiseUntil = now + durationInDays * 1 days;\n        Project newProject = new Project(\n            _ProjectName,\n            _ProjectDescription,\n            _GoalAmount,\n            _minimunContribution,\n            raiseUntil,\n            msg.sender\n        );\n        newProject.setParentContract(address(this));\n        projects.push(newProject);\n\n        newProject.setOwnerDetails(_creatorName, _phoneNumber);\n        userProjectList[msg.sender].push(newProject);\n        // newProject.initialFund();\n    }\n\n    function numberOfProjects() public view returns (uint256) {\n        return projects.length;\n    }\n\n    function returnAllProjects() external view returns (Project[] memory) {\n        return projects;\n    }\n\n    function getMyprojects() public view returns (Project[] memory) {\n        return userProjectList[msg.sender];\n    }\n\n    function getMyContributedProjects() public view returns (address[] memory) {\n        return investorContributions[msg.sender];\n    }\n}\n\ncontract Project {\n    // using SafeMath for uint256;\n\n    enum State {\n        Fundraising,\n        Expired,\n        Successful,\n        Cancelled\n    }\n\n    struct withDrawDetail {\n        uint256 amount;\n        string useCase;\n        uint256 date;\n    }\n\n    withDrawDetail[] public withDrawDetailList;\n\n    //parent contract address\n    Crowdfunding public _crowdFundingParentContract;\n\n    // State variables\n\n    // creator details\n    address payable public creator;\n    string public creatorName;\n    string public phoneNumber;\n    uint256 public completeAt;\n    uint256 public raiseBy;\n\n    //project details\n    string public ProjectName;\n    string public ProjectDescription;\n    uint256 public GoalAmount; // required to reach at least this much, else everyone gets refund\n    uint256 public currentBalance; // update on each contribution\n    uint256 public minimunContribution;\n    State public state; // state of the project (fundraising/expired/successful)\n\n    mapping(address => uint256) public contributions;\n    address payable[] contributersAddress;\n    uint256 public numberOfContributors;\n\n    constructor(\n        string memory _ProjectName,\n        string memory _ProjectDescription,\n        uint256 _GoalAmount,\n        uint256 _minimunContribution,\n        uint256 _fundRaisingDeadline,\n        address payable _creator\n    ) public {\n        ProjectName = _ProjectName;\n        ProjectDescription = _ProjectDescription;\n        GoalAmount = _GoalAmount;\n        minimunContribution = _minimunContribution;\n        currentBalance = 0;\n        raiseBy = _fundRaisingDeadline;\n        state = State.Fundraising;\n        creator = _creator; // set to who calling this\n        numberOfContributors = 0;\n    }\n\n    function initialFund() external payable {\n        require(msg.sender == creator);\n    }\n\n    function setParentContract(address _address) public {\n        _crowdFundingParentContract = Crowdfunding(_address);\n    }\n\n    function setOwnerDetails(\n        string memory _creatorName,\n        string memory _phoneNumber\n    ) public {\n        creatorName = _creatorName;\n        phoneNumber = _phoneNumber;\n    }\n\n    function contibute() public payable {\n        // checking this project is expired or not on each contribution\n        // checkIfFundingCompleteOrExpired();\n        require(state == State.Fundraising, \"Not recv any new contributions\");\n        require(\n            msg.value > minimunContribution,\n            \"should be greaterthan min amount\"\n        );\n        // require((msg.value + currentBalance) <= (GoalAmount + 3000000),\"should be lessthan Goalamount\");\n\n        contributions[msg.sender] = contributions[msg.sender] + msg.value;\n        currentBalance += msg.value;\n        numberOfContributors++;\n\n        // adding the contribution details into parent contract mapping\n        _crowdFundingParentContract.createAnewContribution(msg.sender, this);\n        // checking this project is expired or not on each contribution\n        checkIfFundingCompleteOrExpired();\n    }\n\n    function contributorsCount() public view returns (uint256) {\n        return numberOfContributors;\n    }\n\n    function isAContributor() external view returns (bool) {\n        if (contributions[msg.sender] > 0) {\n            return true;\n        }\n        return false;\n    }\n\n    function checkIfFundingCompleteOrExpired() public {\n        if (currentBalance >= GoalAmount) {\n            state = State.Successful;\n        } else if (now > raiseBy) {\n            state = State.Expired;\n        }\n    }\n\n    function payOut() public returns (bool) {\n        require(msg.sender == creator, \"your not the creator\");\n        require(state == State.Successful);\n        uint256 totalRaised = currentBalance;\n        currentBalance = 0;\n\n        if (creator.send(totalRaised)) {\n            return true;\n        } else {\n            currentBalance = totalRaised;\n            state = State.Successful;\n        }\n        return false;\n    }\n\n    function cancelTheProject() public returns (bool) {\n        require(msg.sender == creator, \"Your not the creator\");\n        state = State.Cancelled;\n        if (refundAll() == true) {\n            return true;\n        }\n        return false;\n    }\n\n    function refundAll() public returns (bool) {\n        for (uint256 i = 0; i < contributersAddress.length; i++) {\n            address payable person = contributersAddress[i];\n            uint256 amount = contributions[person];\n            if (amount > 0) {\n                person.transfer(amount);\n                currentBalance -= amount;\n                contributions[person] = 0;\n                numberOfContributors--;\n            }\n        }\n        return true;\n    }\n\n    function getRefund() public returns (bool) {\n        require(contributions[msg.sender] > 0, \"you didn't contributed yet\");\n        require(state != State.Fundraising); // won't get refund until the project expired or cancelled\n        require(state != State.Successful);\n\n        uint256 amountToRefund = contributions[msg.sender];\n        contributions[msg.sender] = 0;\n\n        if (!msg.sender.send(amountToRefund)) {\n            contributions[msg.sender] = amountToRefund;\n            return false;\n        } else {\n            currentBalance = currentBalance - amountToRefund;\n        }\n        numberOfContributors--;\n        return true;\n    }\n\n    function withDraw(uint256 _amount, string memory _useCase)\n        public\n        returns (bool)\n    {\n        // withdraw amount for a specific use case\n        require(msg.sender == creator, \"your not the creator\");\n        require(state == State.Successful);\n        if (creator.send(_amount)) {\n            withDrawDetail memory tmp = withDrawDetail(_amount, _useCase, now);\n            withDrawDetailList.push(tmp);\n            return true;\n        } else {\n            return false;\n        }\n    }\n\n    function returnAllWithDrawDetails()\n        public\n        view\n        returns (withDrawDetail[] memory)\n    {\n        return withDrawDetailList;\n    }\n\n    function getContractBalance() public view returns (uint256) {\n        return address(this).balance;\n    }\n\n    // get details about the project\n    function getSummary()\n        public\n        view\n        returns (\n            address payable,\n            string memory,\n            string memory,\n            uint256,\n            string memory,\n            string memory,\n            uint256,\n            uint256,\n            uint256,\n            State,\n            uint256\n        )\n    {\n        return (\n            creator,\n            creatorName,\n            phoneNumber,\n            raiseBy,\n            ProjectName,\n            ProjectDescription,\n            GoalAmount,\n            currentBalance,\n            minimunContribution,\n            state,\n            numberOfContributors\n        );\n    }\n}\n",
  "sourcePath": "/home/adil/final_year_project/farming_using_ai_and_blockchain_front_end/contracts/Crowdfunding.sol",
  "compiler": {
    "name": "solc",
    "version": "0.5.16+commit.9c3226ce.Emscripten.clang"
  },
  "schemaVersion": "3.4.5",
  "updatedAt": "2022-05-04T11:11:23.790Z",
  "networkType": "ethereum",
  "devdoc": {
    "methods": {}
  },
  "userdoc": {
    "methods": {}
  }
}