{
  "contractName": "Crowdfunding",
  "abi": [
    {
      "constant": true,
      "inputs": [
        {
          "internalType": "address",
          "name": "",
          "type": "address"
        },
        {
          "internalType": "uint256",
          "name": "",
          "type": "uint256"
        }
      ],
      "name": "userProjectList",
      "outputs": [
        {
          "internalType": "contract Project",
          "name": "",
          "type": "address"
        }
      ],
      "payable": false,
      "stateMutability": "view",
      "type": "function"
    },
    {
      "constant": false,
      "inputs": [
        {
          "internalType": "address",
          "name": "_user",
          "type": "address"
        },
        {
          "internalType": "contract Project",
          "name": "_address",
          "type": "address"
        }
      ],
      "name": "createAnewContribution",
      "outputs": [],
      "payable": false,
      "stateMutability": "nonpayable",
      "type": "function"
    },
    {
      "constant": false,
      "inputs": [
        {
          "internalType": "string",
          "name": "_ProjectName",
          "type": "string"
        },
        {
          "internalType": "string",
          "name": "_ProjectDescription",
          "type": "string"
        },
        {
          "internalType": "uint256",
          "name": "_GoalAmount",
          "type": "uint256"
        },
        {
          "internalType": "uint256",
          "name": "_minimunContribution",
          "type": "uint256"
        },
        {
          "internalType": "uint256",
          "name": "durationInDays",
          "type": "uint256"
        },
        {
          "internalType": "string",
          "name": "_creatorName",
          "type": "string"
        },
        {
          "internalType": "string",
          "name": "_phoneNumber",
          "type": "string"
        },
        {
          "internalType": "string",
          "name": "_landLocation",
          "type": "string"
        }
      ],
      "name": "startProject",
      "outputs": [],
      "payable": false,
      "stateMutability": "nonpayable",
      "type": "function"
    },
    {
      "constant": true,
      "inputs": [],
      "name": "numberOfProjects",
      "outputs": [
        {
          "internalType": "uint256",
          "name": "",
          "type": "uint256"
        }
      ],
      "payable": false,
      "stateMutability": "view",
      "type": "function"
    },
    {
      "constant": true,
      "inputs": [],
      "name": "returnAllProjects",
      "outputs": [
        {
          "internalType": "contract Project[]",
          "name": "",
          "type": "address[]"
        }
      ],
      "payable": false,
      "stateMutability": "view",
      "type": "function"
    },
    {
      "constant": true,
      "inputs": [],
      "name": "getMyprojects",
      "outputs": [
        {
          "internalType": "contract Project[]",
          "name": "",
          "type": "address[]"
        }
      ],
      "payable": false,
      "stateMutability": "view",
      "type": "function"
    },
    {
      "constant": true,
      "inputs": [],
      "name": "getMyContributedProjects",
      "outputs": [
        {
          "internalType": "address[]",
          "name": "",
          "type": "address[]"
        }
      ],
      "payable": false,
      "stateMutability": "view",
      "type": "function"
    }
  ],
  "bytecode": "0x608060405234801561001057600080fd5b50614999806100206000396000f3fe60806040523480156200001157600080fd5b5060043610620000a5576000357c01000000000000000000000000000000000000000000000000000000009004806391a38fbb116200008057806391a38fbb146200010e578063b9e59fd81462000130578063d8111e701462000166578063db5e4c7f146200018657620000a5565b8063443dcc8114620000aa57806385b6e28e14620000cc5780638dc726a814620000ee575b600080fd5b620000b4620001a8565b604051620000c3919062000cb5565b60405180910390f35b620000d662000275565b604051620000e5919062000cd9565b60405180910390f35b6200010c6004803603620001069190810190620009a9565b62000305565b005b6200011862000587565b60405162000127919062000cd9565b60405180910390f35b6200014e600480360362000148919081019062000968565b62000654565b6040516200015d919062000cfd565b60405180910390f35b6200018460048036036200017e919081019062000927565b620006a0565b005b620001906200086c565b6040516200019f919062000de7565b60405180910390f35b6060600360003373ffffffffffffffffffffffffffffffffffffffff1673ffffffffffffffffffffffffffffffffffffffff1681526020019081526020016000208054806020026020016040519081016040528092919081815260200182805480156200026b57602002820191906000526020600020905b8160009054906101000a900473ffffffffffffffffffffffffffffffffffffffff1673ffffffffffffffffffffffffffffffffffffffff168152602001906001019080831162000220575b5050505050905090565b60606000805480602002602001604051908101604052809291908181526020018280548015620002fb57602002820191906000526020600020905b8160009054906101000a900473ffffffffffffffffffffffffffffffffffffffff1673ffffffffffffffffffffffffffffffffffffffff1681526020019060010190808311620002b0575b5050505050905090565b600062015180850242019050600089898989853388604051620003289062000878565b6200033a979695949392919062000d55565b604051809103906000f08015801562000357573d6000803e3d6000fd5b5090508073ffffffffffffffffffffffffffffffffffffffff1663765ccb6b306040518263ffffffff167c0100000000000000000000000000000000000000000000000000000000028152600401620003b1919062000c98565b600060405180830381600087803b158015620003cc57600080fd5b505af1158015620003e1573d6000803e3d6000fd5b5050505060008190806001815401808255809150509060018203906000526020600020016000909192909190916101000a81548173ffffffffffffffffffffffffffffffffffffffff021916908373ffffffffffffffffffffffffffffffffffffffff160217905550508073ffffffffffffffffffffffffffffffffffffffff16639628f80586866040518363ffffffff167c0100000000000000000000000000000000000000000000000000000000028152600401620004a492919062000d1a565b600060405180830381600087803b158015620004bf57600080fd5b505af1158015620004d4573d6000803e3d6000fd5b50505050600160003373ffffffffffffffffffffffffffffffffffffffff1673ffffffffffffffffffffffffffffffffffffffff1681526020019081526020016000208190806001815401808255809150509060018203906000526020600020016000909192909190916101000a81548173ffffffffffffffffffffffffffffffffffffffff021916908373ffffffffffffffffffffffffffffffffffffffff1602179055505050505050505050505050565b6060600160003373ffffffffffffffffffffffffffffffffffffffff1673ffffffffffffffffffffffffffffffffffffffff1681526020019081526020016000208054806020026020016040519081016040528092919081815260200182805480156200064a57602002820191906000526020600020905b8160009054906101000a900473ffffffffffffffffffffffffffffffffffffffff1673ffffffffffffffffffffffffffffffffffffffff1681526020019060010190808311620005ff575b5050505050905090565b600160205281600052604060002081815481106200066e57fe5b906000526020600020016000915091509054906101000a900473ffffffffffffffffffffffffffffffffffffffff1681565b600260008373ffffffffffffffffffffffffffffffffffffffff1673ffffffffffffffffffffffffffffffffffffffff16815260200190815260200160002060008273ffffffffffffffffffffffffffffffffffffffff1673ffffffffffffffffffffffffffffffffffffffff16815260200190815260200160002060009054906101000a900460ff1662000868576001600260008473ffffffffffffffffffffffffffffffffffffffff1673ffffffffffffffffffffffffffffffffffffffff16815260200190815260200160002060008373ffffffffffffffffffffffffffffffffffffffff1673ffffffffffffffffffffffffffffffffffffffff16815260200190815260200160002060006101000a81548160ff021916908315150217905550600360008373ffffffffffffffffffffffffffffffffffffffff1673ffffffffffffffffffffffffffffffffffffffff1681526020019081526020016000208190806001815401808255809150509060018203906000526020600020016000909192909190916101000a81548173ffffffffffffffffffffffffffffffffffffffff021916908373ffffffffffffffffffffffffffffffffffffffff160217905550505b5050565b60008080549050905090565b613948806200100f83390190565b600081359050620008978162000fc0565b92915050565b600081359050620008ae8162000fda565b92915050565b600082601f830112620008c657600080fd5b8135620008dd620008d78262000e32565b62000e04565b91508082526020830160208301858383011115620008fa57600080fd5b6200090783828462000f6a565b50505092915050565b600081359050620009218162000ff4565b92915050565b600080604083850312156200093b57600080fd5b60006200094b8582860162000886565b92505060206200095e858286016200089d565b9150509250929050565b600080604083850312156200097c57600080fd5b60006200098c8582860162000886565b92505060206200099f8582860162000910565b9150509250929050565b600080600080600080600080610100898b031215620009c757600080fd5b600089013567ffffffffffffffff811115620009e257600080fd5b620009f08b828c01620008b4565b985050602089013567ffffffffffffffff81111562000a0e57600080fd5b62000a1c8b828c01620008b4565b975050604062000a2f8b828c0162000910565b965050606062000a428b828c0162000910565b955050608062000a558b828c0162000910565b94505060a089013567ffffffffffffffff81111562000a7357600080fd5b62000a818b828c01620008b4565b93505060c089013567ffffffffffffffff81111562000a9f57600080fd5b62000aad8b828c01620008b4565b92505060e089013567ffffffffffffffff81111562000acb57600080fd5b62000ad98b828c01620008b4565b9150509295985092959890939650565b600062000af7838362000b2e565b60208301905092915050565b600062000b11838362000c24565b60208301905092915050565b62000b288162000ef0565b82525050565b62000b398162000edc565b82525050565b62000b4a8162000edc565b82525050565b600062000b5d8262000e7f565b62000b69818562000eba565b935062000b768362000e5f565b8060005b8381101562000bad57815162000b91888262000ae9565b975062000b9e8362000ea0565b92505060018101905062000b7a565b5085935050505092915050565b600062000bc78262000e8a565b62000bd3818562000eba565b935062000be08362000e6f565b8060005b8381101562000c1757815162000bfb888262000b03565b975062000c088362000ead565b92505060018101905062000be4565b5085935050505092915050565b62000c2f8162000f42565b82525050565b62000c408162000f42565b82525050565b600062000c538262000e95565b62000c5f818562000ecb565b935062000c7181856020860162000f79565b62000c7c8162000faf565b840191505092915050565b62000c928162000f38565b82525050565b600060208201905062000caf600083018462000b3f565b92915050565b6000602082019050818103600083015262000cd1818462000b50565b905092915050565b6000602082019050818103600083015262000cf5818462000bba565b905092915050565b600060208201905062000d14600083018462000c35565b92915050565b6000604082019050818103600083015262000d36818562000c46565b9050818103602083015262000d4c818462000c46565b90509392505050565b600060e082019050818103600083015262000d71818a62000c46565b9050818103602083015262000d87818962000c46565b905062000d98604083018862000c87565b62000da7606083018762000c87565b62000db6608083018662000c87565b62000dc560a083018562000b1d565b81810360c083015262000dd9818462000c46565b905098975050505050505050565b600060208201905062000dfe600083018462000c87565b92915050565b6000604051905081810181811067ffffffffffffffff8211171562000e2857600080fd5b8060405250919050565b600067ffffffffffffffff82111562000e4a57600080fd5b601f19601f8301169050602081019050919050565b6000819050602082019050919050565b6000819050602082019050919050565b600081519050919050565b600081519050919050565b600081519050919050565b6000602082019050919050565b6000602082019050919050565b600082825260208201905092915050565b600082825260208201905092915050565b600062000ee98262000f18565b9050919050565b600062000efd8262000f18565b9050919050565b600062000f118262000edc565b9050919050565b600073ffffffffffffffffffffffffffffffffffffffff82169050919050565b6000819050919050565b600062000f4f8262000f56565b9050919050565b600062000f638262000f18565b9050919050565b82818337600083830152505050565b60005b8381101562000f9957808201518184015260208101905062000f7c565b8381111562000fa9576000848401525b50505050565b6000601f19601f8301169050919050565b62000fcb8162000edc565b811462000fd757600080fd5b50565b62000fe58162000f04565b811462000ff157600080fd5b50565b62000fff8162000f38565b81146200100b57600080fd5b5056fe60806040523480156200001157600080fd5b50604051620039483803806200394883398181016040526200003791908101906200026e565b86600790805190602001906200004f92919062000135565b5085600890805190602001906200006892919062000135565b5084600a8190555083600c819055506000600b81905550826006819055506000600d60006101000a81548160ff02191690836005811115620000a657fe5b021790555081600260006101000a81548173ffffffffffffffffffffffffffffffffffffffff021916908373ffffffffffffffffffffffffffffffffffffffff160217905550600060108190555080600990805190602001906200010c92919062000135565b506000600d60016101000a81548160ff0219169083151502179055505050505050505062000469565b828054600181600116156101000203166002900490600052602060002090601f016020900481019282601f106200017857805160ff1916838001178555620001a9565b82800160010185558215620001a9579182015b82811115620001a85782518255916020019190600101906200018b565b5b509050620001b89190620001bc565b5090565b620001e191905b80821115620001dd576000816000905550600101620001c3565b5090565b90565b600081519050620001f58162000435565b92915050565b600082601f8301126200020d57600080fd5b8151620002246200021e8262000394565b62000366565b915080825260208301602083018583830111156200024157600080fd5b6200024e838284620003ff565b50505092915050565b60008151905062000268816200044f565b92915050565b600080600080600080600060e0888a0312156200028a57600080fd5b600088015167ffffffffffffffff811115620002a557600080fd5b620002b38a828b01620001fb565b975050602088015167ffffffffffffffff811115620002d157600080fd5b620002df8a828b01620001fb565b9650506040620002f28a828b0162000257565b9550506060620003058a828b0162000257565b9450506080620003188a828b0162000257565b93505060a06200032b8a828b01620001e4565b92505060c088015167ffffffffffffffff8111156200034957600080fd5b620003578a828b01620001fb565b91505092959891949750929550565b6000604051905081810181811067ffffffffffffffff821117156200038a57600080fd5b8060405250919050565b600067ffffffffffffffff821115620003ac57600080fd5b601f19601f8301169050602081019050919050565b6000620003ce82620003d5565b9050919050565b600073ffffffffffffffffffffffffffffffffffffffff82169050919050565b6000819050919050565b60005b838110156200041f57808201518184015260208101905062000402565b838111156200042f576000848401525b50505050565b6200044081620003c1565b81146200044c57600080fd5b50565b6200045a81620003f5565b81146200046657600080fd5b50565b6134cf80620004796000396000f3fe60806040526004361061024d576000357c0100000000000000000000000000000000000000000000000000000000900480637569b3d71161014b578063be0f63f7116100c8578063ce845d1d1161008c578063ce845d1d14610830578063d5f9e6c71461085b578063e25c3f6514610886578063e82a2f8614610890578063ea25213f146108bb5761024d565b8063be0f63f714610735578063c19d93fb14610772578063c20524031461079d578063c452695f146107c8578063c6f5b0e0146107f35761024d565b80639628f8051161010f5780639628f8051461065f5780639c70fe0614610688578063a7f33715146106b3578063b2d5ae44146106de578063b59bd591146107095761024d565b80637569b3d7146105b2578063765ccb6b146105dd5780637795690c146106065780637a84d2331461061d57806386f32586146106485761024d565b80634377cf65116101d95780634ddd0c401161019d5780634ddd0c40146104ef57806357b8af671461051a57806364a12e5d146105315780636f9fb98a1461055c578063747f3380146105875761024d565b80634377cf651461040457806344ab323b1461042f578063459869721461045a57806346813088146104995780634c4cea5a146104c45761024d565b80632dc1cc4f116102205780632dc1cc4f146102fe57806337f944cc1461033b57806338e771ab146103665780634051ddac1461039157806342e94c90146103c75761024d565b806302d05d3f146102525780630b75b25d1461027d5780631dd4dde1146102a85780631f6f90bd146102d3575b600080fd5b34801561025e57600080fd5b506102676108c5565b6040516102749190612e3f565b60405180910390f35b34801561028957600080fd5b506102926108eb565b60405161029f9190612fd4565b60405180910390f35b3480156102b457600080fd5b506102bd610911565b6040516102ca919061316c565b60405180910390f35b3480156102df57600080fd5b506102e8610958565b6040516102f5919061300a565b60405180910390f35b34801561030a57600080fd5b50610325600480360361032091908101906127fb565b6109f6565b6040516103329190612e3f565b60405180910390f35b34801561034757600080fd5b50610350610a32565b60405161035d919061316c565b60405180910390f35b34801561037257600080fd5b5061037b610a38565b6040516103889190612fb9565b60405180910390f35b34801561039d57600080fd5b506103a6610b9d565b6040516103be9c9b9a99989796959493929190612e83565b60405180910390f35b3480156103d357600080fd5b506103ee60048036036103e99190810190612766565b610f2f565b6040516103fb919061316c565b60405180910390f35b34801561041057600080fd5b50610419610f47565b604051610426919061316c565b60405180910390f35b34801561043b57600080fd5b50610444610f4d565b604051610451919061316c565b60405180910390f35b34801561046657600080fd5b50610481600480360361047c91908101906127fb565b610f53565b60405161049093929190613187565b60405180910390f35b3480156104a557600080fd5b506104ae611022565b6040516104bb9190612fb9565b60405180910390f35b3480156104d057600080fd5b506104d9611039565b6040516104e6919061316c565b60405180910390f35b3480156104fb57600080fd5b5061050461103f565b604051610511919061300a565b60405180910390f35b34801561052657600080fd5b5061052f6110dd565b005b34801561053d57600080fd5b506105466112b6565b6040516105539190612fb9565b60405180910390f35b34801561056857600080fd5b506105716112c9565b60405161057e919061316c565b60405180910390f35b34801561059357600080fd5b5061059c6112e8565b6040516105a9919061300a565b60405180910390f35b3480156105be57600080fd5b506105c7611386565b6040516105d4919061316c565b60405180910390f35b3480156105e957600080fd5b5061060460048036036105ff9190810190612766565b611390565b005b34801561061257600080fd5b5061061b6113d4565b005b34801561062957600080fd5b50610632611623565b60405161063f9190612fb9565b60405180910390f35b34801561065457600080fd5b5061065d61171f565b005b34801561066b57600080fd5b506106866004803603610681919081019061278f565b61178e565b005b34801561069457600080fd5b5061069d6117c0565b6040516106aa919061300a565b60405180910390f35b3480156106bf57600080fd5b506106c861185e565b6040516106d5919061316c565b60405180910390f35b3480156106ea57600080fd5b506106f3611864565b6040516107009190612fb9565b60405180910390f35b34801561071557600080fd5b5061071e611a84565b60405161072c929190612f60565b60405180910390f35b34801561074157600080fd5b5061075c60048036036107579190810190612824565b611c33565b6040516107699190612fb9565b60405180910390f35b34801561077e57600080fd5b50610787611def565b6040516107949190612fef565b60405180910390f35b3480156107a957600080fd5b506107b2611e02565b6040516107bf9190612fb9565b60405180910390f35b3480156107d457600080fd5b506107dd611f6f565b6040516107ea9190612fb9565b60405180910390f35b3480156107ff57600080fd5b5061081a600480360361081591908101906127fb565b611fc9565b6040516108279190612e24565b60405180910390f35b34801561083c57600080fd5b5061084561200a565b604051610852919061316c565b60405180910390f35b34801561086757600080fd5b50610870612010565b60405161087d919061300a565b60405180910390f35b61088e6120ae565b005b34801561089c57600080fd5b506108a561210a565b6040516108b29190612f97565b60405180910390f35b6108c361221f565b005b600260009054906101000a900473ffffffffffffffffffffffffffffffffffffffff1681565b600160009054906101000a900473ffffffffffffffffffffffffffffffffffffffff1681565b6000600e60003373ffffffffffffffffffffffffffffffffffffffff1673ffffffffffffffffffffffffffffffffffffffff16815260200190815260200160002054905090565b60038054600181600116156101000203166002900480601f0160208091040260200160405190810160405280929190818152602001828054600181600116156101000203166002900480156109ee5780601f106109c3576101008083540402835291602001916109ee565b820191906000526020600020905b8154815290600101906020018083116109d157829003601f168201915b505050505081565b600f8181548110610a0357fe5b906000526020600020016000915054906101000a900473ffffffffffffffffffffffffffffffffffffffff1681565b60065481565b600080600090505b600f80549050811015610b95576000600f8281548110610a5c57fe5b9060005260206000200160009054906101000a900473ffffffffffffffffffffffffffffffffffffffff1690506000600e60008373ffffffffffffffffffffffffffffffffffffffff1673ffffffffffffffffffffffffffffffffffffffff1681526020019081526020016000205490506000811115610b86578173ffffffffffffffffffffffffffffffffffffffff166108fc829081150290604051600060405180830381858888f19350505050158015610b1c573d6000803e3d6000fd5b5080600b600082825403925050819055506000600e60008473ffffffffffffffffffffffffffffffffffffffff1673ffffffffffffffffffffffffffffffffffffffff16815260200190815260200160002081905550601060008154809291906001900391905055505b50508080600101915050610a40565b506001905090565b6000606080600060608060008060008060006060600260009054906101000a900473ffffffffffffffffffffffffffffffffffffffff166003600460065460076008600a54600b54600c54600d60009054906101000a900460ff1660105460098a8054600181600116156101000203166002900480601f016020809104026020016040519081016040528092919081815260200182805460018160011615610100020316600290048015610c925780601f10610c6757610100808354040283529160200191610c92565b820191906000526020600020905b815481529060010190602001808311610c7557829003601f168201915b50505050509a50898054600181600116156101000203166002900480601f016020809104026020016040519081016040528092919081815260200182805460018160011615610100020316600290048015610d2e5780601f10610d0357610100808354040283529160200191610d2e565b820191906000526020600020905b815481529060010190602001808311610d1157829003601f168201915b50505050509950878054600181600116156101000203166002900480601f016020809104026020016040519081016040528092919081815260200182805460018160011615610100020316600290048015610dca5780601f10610d9f57610100808354040283529160200191610dca565b820191906000526020600020905b815481529060010190602001808311610dad57829003601f168201915b50505050509750868054600181600116156101000203166002900480601f016020809104026020016040519081016040528092919081815260200182805460018160011615610100020316600290048015610e665780601f10610e3b57610100808354040283529160200191610e66565b820191906000526020600020905b815481529060010190602001808311610e4957829003601f168201915b50505050509650808054600181600116156101000203166002900480601f016020809104026020016040519081016040528092919081815260200182805460018160011615610100020316600290048015610f025780601f10610ed757610100808354040283529160200191610f02565b820191906000526020600020905b815481529060010190602001808311610ee557829003601f168201915b505050505090509b509b509b509b509b509b509b509b509b509b509b509b50909192939495969798999a9b565b600e6020528060005260406000206000915090505481565b60105481565b600a5481565b60008181548110610f6057fe5b9060005260206000209060030201600091509050806000015490806001018054600181600116156101000203166002900480601f0160208091040260200160405190810160405280929190818152602001828054600181600116156101000203166002900480156110125780601f10610fe757610100808354040283529160200191611012565b820191906000526020600020905b815481529060010190602001808311610ff557829003601f168201915b5050505050908060020154905083565b6000600d60019054906101000a900460ff16905090565b60055481565b60088054600181600116156101000203166002900480601f0160208091040260200160405190810160405280929190818152602001828054600181600116156101000203166002900480156110d55780601f106110aa576101008083540402835291602001916110d5565b820191906000526020600020905b8154815290600101906020018083116110b857829003601f168201915b505050505081565b6005808111156110e957fe5b600d60009054906101000a900460ff16600581111561110457fe5b1415611145576040517f08c379a000000000000000000000000000000000000000000000000000000000815260040161113c906130cc565b60405180910390fd5b6000600581111561115257fe5b600d60009054906101000a900460ff16600581111561116d57fe5b14156111ae576040517f08c379a00000000000000000000000000000000000000000000000000000000081526004016111a5906130cc565b60405180910390fd5b600260009054906101000a900473ffffffffffffffffffffffffffffffffffffffff1673ffffffffffffffffffffffffffffffffffffffff163373ffffffffffffffffffffffffffffffffffffffff161461123e576040517f08c379a0000000000000000000000000000000000000000000000000000000008152600401611235906130ac565b60405180910390fd5b6001600d60016101000a81548160ff0219169083151502179055506002600581111561126657fe5b600d60009054906101000a900460ff16600581111561128157fe5b14156112ac576004600d60006101000a81548160ff021916908360058111156112a657fe5b02179055505b6112b46124d6565b565b600d60019054906101000a900460ff1681565b60003073ffffffffffffffffffffffffffffffffffffffff1631905090565b60048054600181600116156101000203166002900480601f01602080910402602001604051908101604052809291908181526020018280546001816001161561010002031660029004801561137e5780601f106113535761010080835404028352916020019161137e565b820191906000526020600020905b81548152906001019060200180831161136157829003601f168201915b505050505081565b6000601054905090565b80600160006101000a81548173ffffffffffffffffffffffffffffffffffffffff021916908373ffffffffffffffffffffffffffffffffffffffff16021790555050565b6005808111156113e057fe5b600d60009054906101000a900460ff1660058111156113fb57fe5b141561143c576040517f08c379a00000000000000000000000000000000000000000000000000000000081526004016114339061314c565b60405180910390fd5b60001515600d60019054906101000a900460ff1615151415611493576040517f08c379a000000000000000000000000000000000000000000000000000000000815260040161148a9061314c565b60405180910390fd5b600060058111156114a057fe5b600d60009054906101000a900460ff1660058111156114bb57fe5b14156114fc576040517f08c379a00000000000000000000000000000000000000000000000000000000081526004016114f39061302c565b60405180910390fd5b6000600e60003373ffffffffffffffffffffffffffffffffffffffff1673ffffffffffffffffffffffffffffffffffffffff168152602001908152602001600020541161157e576040517f08c379a00000000000000000000000000000000000000000000000000000000081526004016115759061310c565b60405180910390fd5b60011515600d60019054906101000a900460ff161515146115d4576040517f08c379a00000000000000000000000000000000000000000000000000000000081526004016115cb9061308c565b60405180910390fd5b6000600e60003373ffffffffffffffffffffffffffffffffffffffff1673ffffffffffffffffffffffffffffffffffffffff168152602001908152602001600020819055506116216124d6565b565b6000600260009054906101000a900473ffffffffffffffffffffffffffffffffffffffff1673ffffffffffffffffffffffffffffffffffffffff163373ffffffffffffffffffffffffffffffffffffffff16146116b5576040517f08c379a00000000000000000000000000000000000000000000000000000000081526004016116ac906130ac565b60405180910390fd5b6003600d60006101000a81548160ff021916908360058111156116d457fe5b0217905550600b546116e46112c9565b146116f2576001905061171c565b600115156116fe610a38565b151514156117175761170e6110dd565b6001905061171c565b600090505b90565b600a54600b5410611753576002600d60006101000a81548160ff0219169083600581111561174957fe5b021790555061178c565b60065442111561178b576001600d60006101000a81548160ff0219169083600581111561177c57fe5b0217905550611789610a38565b505b5b565b81600390805190602001906117a49291906125a2565b5080600490805190602001906117bb9291906125a2565b505050565b60098054600181600116156101000203166002900480601f0160208091040260200160405190810160405280929190818152602001828054600181600116156101000203166002900480156118565780601f1061182b57610100808354040283529160200191611856565b820191906000526020600020905b81548152906001019060200180831161183957829003601f168201915b505050505081565b600c5481565b600080600e60003373ffffffffffffffffffffffffffffffffffffffff1673ffffffffffffffffffffffffffffffffffffffff16815260200190815260200160002054116118e7576040517f08c379a00000000000000000000000000000000000000000000000000000000081526004016118de9061306c565b60405180910390fd5b600060058111156118f457fe5b600d60009054906101000a900460ff16600581111561190f57fe5b141561191a57600080fd5b6002600581111561192757fe5b600d60009054906101000a900460ff16600581111561194257fe5b141561194d57600080fd5b6000600e60003373ffffffffffffffffffffffffffffffffffffffff1673ffffffffffffffffffffffffffffffffffffffff1681526020019081526020016000205490506000600e60003373ffffffffffffffffffffffffffffffffffffffff1673ffffffffffffffffffffffffffffffffffffffff168152602001908152602001600020819055503373ffffffffffffffffffffffffffffffffffffffff166108fc829081150290604051600060405180830381858888f19350505050611a5d5780600e60003373ffffffffffffffffffffffffffffffffffffffff1673ffffffffffffffffffffffffffffffffffffffff168152602001908152602001600020819055506000915050611a81565b80600b5403600b819055506010600081548092919060019003919050555060019150505b90565b6060806060600f80549050604051908082528060200260200182016040528015611abd5781602001602082028038833980820191505090505b5090506060600f80549050604051908082528060200260200182016040528015611af65781602001602082028038833980820191505090505b50905060008090505b600f80549050811015611c2657600f8181548110611b1957fe5b9060005260206000200160009054906101000a900473ffffffffffffffffffffffffffffffffffffffff16838281518110611b5057fe5b602002602001019073ffffffffffffffffffffffffffffffffffffffff16908173ffffffffffffffffffffffffffffffffffffffff1681525050600e6000600f8381548110611b9b57fe5b9060005260206000200160009054906101000a900473ffffffffffffffffffffffffffffffffffffffff1673ffffffffffffffffffffffffffffffffffffffff1673ffffffffffffffffffffffffffffffffffffffff16815260200190815260200160002054828281518110611c0d57fe5b6020026020010181815250508080600101915050611aff565b5081819350935050509091565b6000600260009054906101000a900473ffffffffffffffffffffffffffffffffffffffff1673ffffffffffffffffffffffffffffffffffffffff163373ffffffffffffffffffffffffffffffffffffffff1614611cc5576040517f08c379a0000000000000000000000000000000000000000000000000000000008152600401611cbc906130ec565b60405180910390fd5b60026005811115611cd257fe5b600d60009054906101000a900460ff166005811115611ced57fe5b14611cf757600080fd5b600260009054906101000a900473ffffffffffffffffffffffffffffffffffffffff1673ffffffffffffffffffffffffffffffffffffffff166108fc849081150290604051600060405180830381858888f1935050505015611de457611d5b612622565b604051806060016040528085815260200184815260200142815250905060008190806001815401808255809150509060018203906000526020600020906003020160009091929091909150600082015181600001556020820151816001019080519060200190611dcc929190612643565b50604082015181600201555050506001915050611de9565b600090505b92915050565b600d60009054906101000a900460ff1681565b6000600260009054906101000a900473ffffffffffffffffffffffffffffffffffffffff1673ffffffffffffffffffffffffffffffffffffffff163373ffffffffffffffffffffffffffffffffffffffff1614611e94576040517f08c379a0000000000000000000000000000000000000000000000000000000008152600401611e8b906130ec565b60405180910390fd5b60026005811115611ea157fe5b600d60009054906101000a900460ff166005811115611ebc57fe5b14611ec657600080fd5b6000600b5490506000600b81905550600260009054906101000a900473ffffffffffffffffffffffffffffffffffffffff1673ffffffffffffffffffffffffffffffffffffffff166108fc829081150290604051600060405180830381858888f1935050505015611f3b576001915050611f6c565b80600b819055506002600d60006101000a81548160ff02191690836005811115611f6157fe5b021790555060009150505b90565b600080600e60003373ffffffffffffffffffffffffffffffffffffffff1673ffffffffffffffffffffffffffffffffffffffff168152602001908152602001600020541115611fc15760019050611fc6565b600090505b90565b6000600f8281548110611fd857fe5b9060005260206000200160009054906101000a900473ffffffffffffffffffffffffffffffffffffffff169050919050565b600b5481565b60078054600181600116156101000203166002900480601f0160208091040260200160405190810160405280929190818152602001828054600181600116156101000203166002900480156120a65780601f1061207b576101008083540402835291602001916120a6565b820191906000526020600020905b81548152906001019060200180831161208957829003601f168201915b505050505081565b600260009054906101000a900473ffffffffffffffffffffffffffffffffffffffff1673ffffffffffffffffffffffffffffffffffffffff163373ffffffffffffffffffffffffffffffffffffffff161461210857600080fd5b565b60606000805480602002602001604051908101604052809291908181526020016000905b82821015612216578382906000526020600020906003020160405180606001604052908160008201548152602001600182018054600181600116156101000203166002900480601f0160208091040260200160405190810160405280929190818152602001828054600181600116156101000203166002900480156121f45780601f106121c9576101008083540402835291602001916121f4565b820191906000526020600020905b8154815290600101906020018083116121d757829003601f168201915b505050505081526020016002820154815250508152602001906001019061212e565b50505050905090565b6000600581111561222c57fe5b600d60009054906101000a900460ff16600581111561224757fe5b14612287576040517f08c379a000000000000000000000000000000000000000000000000000000000815260040161227e9061304c565b60405180910390fd5b600c5434116122cb576040517f08c379a00000000000000000000000000000000000000000000000000000000081526004016122c29061312c565b60405180910390fd5b6000600e60003373ffffffffffffffffffffffffffffffffffffffff1673ffffffffffffffffffffffffffffffffffffffff16815260200190815260200160002054141561238c57600f3390806001815401808255809150509060018203906000526020600020016000909192909190916101000a81548173ffffffffffffffffffffffffffffffffffffffff021916908373ffffffffffffffffffffffffffffffffffffffff160217905550506010600081548092919060010191905055505b34600e60003373ffffffffffffffffffffffffffffffffffffffff1673ffffffffffffffffffffffffffffffffffffffff1681526020019081526020016000205401600e60003373ffffffffffffffffffffffffffffffffffffffff1673ffffffffffffffffffffffffffffffffffffffff1681526020019081526020016000208190555034600b60008282540192505081905550600160009054906101000a900473ffffffffffffffffffffffffffffffffffffffff1673ffffffffffffffffffffffffffffffffffffffff1663d8111e7033306040518363ffffffff167c010000000000000000000000000000000000000000000000000000000002815260040161249a929190612e5a565b600060405180830381600087803b1580156124b457600080fd5b505af11580156124c8573d6000803e3d6000fd5b505050506124d461171f565b565b60008090505b600f8054905081101561257a576000600e6000600f84815481106124fc57fe5b9060005260206000200160009054906101000a900473ffffffffffffffffffffffffffffffffffffffff1673ffffffffffffffffffffffffffffffffffffffff1673ffffffffffffffffffffffffffffffffffffffff168152602001908152602001600020541461256d57506125a0565b80806001019150506124dc565b506005600d60006101000a81548160ff0219169083600581111561259a57fe5b02179055505b565b828054600181600116156101000203166002900490600052602060002090601f016020900481019282601f106125e357805160ff1916838001178555612611565b82800160010185558215612611579182015b828111156126105782518255916020019190600101906125f5565b5b50905061261e91906126c3565b5090565b60405180606001604052806000815260200160608152602001600081525090565b828054600181600116156101000203166002900490600052602060002090601f016020900481019282601f1061268457805160ff19168380011785556126b2565b828001600101855582156126b2579182015b828111156126b1578251825591602001919060010190612696565b5b5090506126bf91906126c3565b5090565b6126e591905b808211156126e15760008160009055506001016126c9565b5090565b90565b6000813590506126f78161345e565b92915050565b600082601f83011261270e57600080fd5b813561272161271c826131f2565b6131c5565b9150808252602083016020830185838301111561273d57600080fd5b6127488382846133fe565b50505092915050565b60008135905061276081613475565b92915050565b60006020828403121561277857600080fd5b6000612786848285016126e8565b91505092915050565b600080604083850312156127a257600080fd5b600083013567ffffffffffffffff8111156127bc57600080fd5b6127c8858286016126fd565b925050602083013567ffffffffffffffff8111156127e557600080fd5b6127f1858286016126fd565b9150509250929050565b60006020828403121561280d57600080fd5b600061281b84828501612751565b91505092915050565b6000806040838503121561283757600080fd5b600061284585828601612751565b925050602083013567ffffffffffffffff81111561286257600080fd5b61286e858286016126fd565b9150509250929050565b600061288483836128da565b60208301905092915050565b600061289c8383612db6565b905092915050565b60006128b08383612e06565b60208301905092915050565b6128c58161336e565b82525050565b6128d481613313565b82525050565b6128e381613301565b82525050565b6128f281613301565b82525050565b60006129038261324e565b61290d81856132ac565b93506129188361321e565b8060005b838110156129495781516129308882612878565b975061293b83613285565b92505060018101905061291c565b5085935050505092915050565b600061296182613259565b61296b81856132bd565b93508360208202850161297d8561322e565b8060005b858110156129b9578484038952815161299a8582612890565b94506129a583613292565b925060208a01995050600181019050612981565b50829750879550505050505092915050565b60006129d682613264565b6129e081856132ce565b93506129eb8361323e565b8060005b83811015612a1c578151612a0388826128a4565b9750612a0e8361329f565b9250506001810190506129ef565b5085935050505092915050565b612a3281613325565b82525050565b612a4181613380565b82525050565b612a50816133a4565b82525050565b612a5f816133c8565b82525050565b6000612a708261327a565b612a7a81856132f0565b9350612a8a81856020860161340d565b612a9381613440565b840191505092915050565b6000612aa98261326f565b612ab381856132df565b9350612ac381856020860161340d565b612acc81613440565b840191505092915050565b6000612ae28261326f565b612aec81856132f0565b9350612afc81856020860161340d565b612b0581613440565b840191505092915050565b6000612b1d6013836132f0565b91507f496e2066756e64726973696e67207374617465000000000000000000000000006000830152602082019050919050565b6000612b5d601e836132f0565b91507f4e6f74207265637620616e79206e657720636f6e747269627574696f6e7300006000830152602082019050919050565b6000612b9d601a836132f0565b91507f796f75206469646e277420636f6e7472696275746564207965740000000000006000830152602082019050919050565b6000612bdd6023836132f0565b91507f70726f6a65637420636c6f73696e6720666c6167206973206e6f74207965742060008301527f73657400000000000000000000000000000000000000000000000000000000006020830152604082019050919050565b6000612c436014836132f0565b91507f596f7572206e6f74207468652063726561746f720000000000000000000000006000830152602082019050919050565b6000612c836020836132f0565b91507f4e6f7420796574207265637620726571756972656420696e766573746d656e746000830152602082019050919050565b6000612cc36014836132f0565b91507f796f7572206e6f74207468652063726561746f720000000000000000000000006000830152602082019050919050565b6000612d036016836132f0565b91507f596f7572206e6f74206120636f6e7472696275746f72000000000000000000006000830152602082019050919050565b6000612d436020836132f0565b91507f73686f756c6420626520677265617465727468616e206d696e20616d6f756e746000830152602082019050919050565b6000612d83600e836132f0565b91507f416c726561647920636c6f7365640000000000000000000000000000000000006000830152602082019050919050565b6000606083016000830151612dce6000860182612e06565b5060208301518482036020860152612de68282612a9e565b9150506040830151612dfb6040860182612e06565b508091505092915050565b612e0f81613364565b82525050565b612e1e81613364565b82525050565b6000602082019050612e3960008301846128e9565b92915050565b6000602082019050612e5460008301846128cb565b92915050565b6000604082019050612e6f60008301856128bc565b612e7c6020830184612a47565b9392505050565b600061018082019050612e99600083018f6128cb565b8181036020830152612eab818e612a65565b90508181036040830152612ebf818d612a65565b9050612ece606083018c612e15565b8181036080830152612ee0818b612a65565b905081810360a0830152612ef4818a612a65565b9050612f0360c0830189612e15565b612f1060e0830188612e15565b612f1e610100830187612e15565b612f2c610120830186612a56565b612f3a610140830185612e15565b818103610160830152612f4d8184612a65565b90509d9c50505050505050505050505050565b60006040820190508181036000830152612f7a81856128f8565b90508181036020830152612f8e81846129cb565b90509392505050565b60006020820190508181036000830152612fb18184612956565b905092915050565b6000602082019050612fce6000830184612a29565b92915050565b6000602082019050612fe96000830184612a38565b92915050565b60006020820190506130046000830184612a56565b92915050565b600060208201905081810360008301526130248184612ad7565b905092915050565b6000602082019050818103600083015261304581612b10565b9050919050565b6000602082019050818103600083015261306581612b50565b9050919050565b6000602082019050818103600083015261308581612b90565b9050919050565b600060208201905081810360008301526130a581612bd0565b9050919050565b600060208201905081810360008301526130c581612c36565b9050919050565b600060208201905081810360008301526130e581612c76565b9050919050565b6000602082019050818103600083015261310581612cb6565b9050919050565b6000602082019050818103600083015261312581612cf6565b9050919050565b6000602082019050818103600083015261314581612d36565b9050919050565b6000602082019050818103600083015261316581612d76565b9050919050565b60006020820190506131816000830184612e15565b92915050565b600060608201905061319c6000830186612e15565b81810360208301526131ae8185612ad7565b90506131bd6040830184612e15565b949350505050565b6000604051905081810181811067ffffffffffffffff821117156131e857600080fd5b8060405250919050565b600067ffffffffffffffff82111561320957600080fd5b601f19601f8301169050602081019050919050565b6000819050602082019050919050565b6000819050602082019050919050565b6000819050602082019050919050565b600081519050919050565b600081519050919050565b600081519050919050565b600081519050919050565b600081519050919050565b6000602082019050919050565b6000602082019050919050565b6000602082019050919050565b600082825260208201905092915050565b600082825260208201905092915050565b600082825260208201905092915050565b600082825260208201905092915050565b600082825260208201905092915050565b600061330c82613344565b9050919050565b600061331e82613344565b9050919050565b60008115159050919050565b600081905061333f82613451565b919050565b600073ffffffffffffffffffffffffffffffffffffffff82169050919050565b6000819050919050565b6000613379826133da565b9050919050565b600061338b82613392565b9050919050565b600061339d82613344565b9050919050565b60006133af826133b6565b9050919050565b60006133c182613344565b9050919050565b60006133d382613331565b9050919050565b60006133e5826133ec565b9050919050565b60006133f782613344565b9050919050565b82818337600083830152505050565b60005b8381101561342b578082015181840152602081019050613410565b8381111561343a576000848401525b50505050565b6000601f19601f8301169050919050565b6006811061345b57fe5b50565b61346781613301565b811461347257600080fd5b50565b61347e81613364565b811461348957600080fd5b5056fea365627a7a723158205d2d76651225eb8d8f15f823024720ae5f6b166263810b5da5b04a12870d50396c6578706572696d656e74616cf564736f6c63430005100040a365627a7a723158201c6daf00b722596ccaa852d364ae548d753c788365085e05134bb7a402ba0dd56c6578706572696d656e74616cf564736f6c63430005100040",
  "source": "pragma solidity 0.5.16;\npragma experimental ABIEncoderV2;\n\n// import 'https://github.com/OpenZeppelin/openzeppelin-contracts/blob/master/contracts/math/SafeMath.sol';\n\ncontract Crowdfunding {\n    Project[] private projects;\n    mapping(address => Project[]) public userProjectList;\n\n    //stroing details about the investors contributed project and their contribution amount\n\n\n    // first address -> user address, second -> project address , uint256 -> contribution\n    mapping(address => mapping(address => bool)) internal investorContributionsMAP; // it used only for checking purpose if this record already exist or not\n    mapping(address => address[]) internal investorContributions;\n\n    function createAnewContribution(address _user,Project _address) public \n    {\n       if(!investorContributionsMAP[_user][address(_address)])\n       {\n        investorContributionsMAP[_user][address(_address)]  = true;\n        investorContributions[_user].push(address(_address)); \n       } \n    }\n\n    \n//rice,nothing,10,1,4,adil,8090,new location\n    function startProject(\n        string memory _ProjectName,\n        string memory _ProjectDescription,\n        uint256 _GoalAmount,\n        uint256 _minimunContribution,\n        uint256 durationInDays,\n        string memory _creatorName,\n        string memory _phoneNumber,\n        string memory _landLocation\n    ) public {\n        uint256 raiseUntil = now + durationInDays * 1 days;\n        Project newProject = new Project(\n            _ProjectName,\n            _ProjectDescription,\n            _GoalAmount,\n            _minimunContribution,\n            raiseUntil,\n            msg.sender,\n            _landLocation\n        );\n        newProject.setParentContract(address(this));\n        projects.push(newProject);\n\n        newProject.setOwnerDetails(_creatorName, _phoneNumber);\n        userProjectList[msg.sender].push(newProject);\n        // newProject.initialFund();\n    }\n\n    function numberOfProjects() public view returns (uint256) {\n        return projects.length;\n    }\n\n    function returnAllProjects() external view returns (Project[] memory) {\n        return projects;\n    }\n\n    function getMyprojects() public view returns (Project[] memory) {\n        return userProjectList[msg.sender];\n    }\n\n    function getMyContributedProjects()\n        public\n        view\n        returns (address[] memory)\n    {\n        return investorContributions[msg.sender];\n    }\n}\n\ncontract Project {\n    // using SafeMath for uint256;\n\n    enum State {\n        Fundraising,\n        Expired,\n        Successful,\n        Cancelled,\n        Completed,\n        Closed\n    }\n\n    struct withDrawDetail {\n        uint256 amount;\n        string useCase;\n        uint256 date;\n    }\n\n    withDrawDetail[] public withDrawDetailList;\n\n    //parent contract address\n    Crowdfunding public _crowdFundingParentContract;\n\n    // State variables\n\n    // creator details\n    address payable public creator;\n    string public creatorName;\n    string public phoneNumber;\n    uint256 public completeAt;\n    uint256 public raiseBy;\n\n    //project details\n    string public ProjectName;\n    string public ProjectDescription;\n    string public landLocation;\n    uint256 public GoalAmount; // required to reach at least this much, else everyone gets refund\n    uint256 public currentBalance; // update on each contribution\n    uint256 public minimunContribution;\n    State public state; // state of the project (fundraising/expired/successful)\n    bool public projectClosing;\n\n    mapping(address => uint256) public contributions;\n    address payable[] public  contributersAddress;\n    uint256 public numberOfContributors;\n\n    constructor(\n        string memory _ProjectName,\n        string memory _ProjectDescription,\n        uint256 _GoalAmount,\n        uint256 _minimunContribution,\n        uint256 _fundRaisingDeadline,\n        address payable _creator,\n        string memory _landLocation\n       \n    ) public {\n        ProjectName = _ProjectName;\n        ProjectDescription = _ProjectDescription;\n        GoalAmount = _GoalAmount;\n        minimunContribution = _minimunContribution;\n        currentBalance = 0;\n        raiseBy = _fundRaisingDeadline;\n        state = State.Fundraising;\n        creator = _creator; // set to who calling this\n        numberOfContributors = 0;\n        landLocation = _landLocation;\n        projectClosing = false;\n        \n    }\n\n    function initialFund() external payable {\n        require(msg.sender == creator);\n    }\n\n    function setParentContract(address _address) public\n    {\n        _crowdFundingParentContract = Crowdfunding(_address);\n    }\n\n    function setOwnerDetails(\n        string memory _creatorName,\n        string memory _phoneNumber\n       \n    ) public {\n        creatorName = _creatorName;\n        phoneNumber = _phoneNumber;\n       \n    }\n\n    function contibute() public payable {\n\n        // checking this project is expired or not on each contribution\n        // checkIfFundingCompleteOrExpired();\n        require(state == State.Fundraising, \"Not recv any new contributions\");\n        require(\n            msg.value > minimunContribution,\n            \"should be greaterthan min amount\"\n        );\n        // require((msg.value + currentBalance) <= (GoalAmount + 3000000),\"should be lessthan Goalamount\");\n        \n        \n        if(contributions[msg.sender] == 0)\n        {\n            contributersAddress.push(msg.sender);\n            numberOfContributors++;\n        }\n        contributions[msg.sender] = contributions[msg.sender] + msg.value;\n        currentBalance += msg.value;\n        \n     \n\n        // adding the contribution details into parent contract mapping \n        _crowdFundingParentContract.createAnewContribution(msg.sender,this);\n        // checking this project is expired or not on each contribution\n        checkIfFundingCompleteOrExpired();\n    }\n\n    function contributorsCount() public view returns (uint256) {\n        return numberOfContributors;\n    }\n\n    function isAContributor() external view returns (bool) {\n        if (contributions[msg.sender] > 0) {\n            return true;\n        }\n        return false;\n    }\n\n    function checkIfFundingCompleteOrExpired() public {\n        if (currentBalance >= GoalAmount) {\n            state = State.Successful;\n        } else if (now > raiseBy) {\n            state = State.Expired;\n            refundAll();\n        }\n    }\n\n    function payOut() public returns (bool) {\n        require(msg.sender == creator, \"your not the creator\");\n        require(state == State.Successful);\n        uint256 totalRaised = currentBalance;\n        currentBalance = 0;\n\n        if (creator.send(totalRaised)) {\n            return true;\n        } else {\n            currentBalance = totalRaised;\n            state = State.Successful;\n        }\n        return false;\n    }\n\n    function cancelTheProject() public returns (bool) {\n        require(msg.sender == creator, \"Your not the creator\");\n        state = State.Cancelled;\n        \n        if(getContractBalance() != currentBalance)\n        {\n          return true;\n        }\n        else{\n            if (refundAll() == true) {\n                   setProjectClosing();\n            return true;\n             }\n        }\n        return false;\n    }\n\n \n\n    function refundAll() public returns (bool) {\n        for (uint256 i = 0; i < contributersAddress.length; i++) {\n            address payable person = contributersAddress[i];\n            uint256 amount = contributions[person];\n            if (amount > 0) {\n                person.transfer(amount);\n                currentBalance -= amount;\n                contributions[person] = 0;\n                numberOfContributors--;\n            }\n        }\n\n        return true;\n    }\n\n    function getContributor(uint256 id) public view returns(address)\n    {\n        return contributersAddress[id];\n    }\n\n    function getRefund() public returns (bool) {\n        require(contributions[msg.sender] > 0, \"you didn't contributed yet\");\n        require(state != State.Fundraising); // won't get refund until the project expired or cancelled\n        require(state != State.Successful);\n\n        uint256 amountToRefund = contributions[msg.sender];\n        contributions[msg.sender] = 0;\n\n        if (!msg.sender.send(amountToRefund)) {\n            contributions[msg.sender] = amountToRefund;\n            return false;\n        } else {\n            currentBalance = currentBalance - amountToRefund;\n        }\n        numberOfContributors--;\n        return true;\n    }\n\n    function withDraw(uint256 _amount, string memory _useCase)\n        public\n        returns (bool)\n    {\n        // withdraw amount for a specific use case\n        require(msg.sender == creator, \"your not the creator\");\n        require(state == State.Successful);\n        if (creator.send(_amount)) {\n            withDrawDetail memory tmp = withDrawDetail(_amount, _useCase, now);\n            withDrawDetailList.push(tmp);\n            return true;\n        } else {\n            return false;\n        }\n    }\n\n    function returnAllWithDrawDetails()\n        public\n        view\n        returns (withDrawDetail[] memory)\n    {\n        return withDrawDetailList;\n    }\n\n    function getContractBalance() public view returns (uint256) {\n        return address(this).balance;\n    }\n    function getContributorsList() public view returns(address[] memory,uint256[] memory)\n    {\n        address[] memory _addresses = new address[](contributersAddress.length);\n        uint256[] memory _amounts = new uint256[](contributersAddress.length);\n        for(uint256 i = 0;i < contributersAddress.length;i++)\n        {\n            _addresses[i] =  contributersAddress[i];\n            _amounts[i] = contributions[contributersAddress[i]];\n        }\n        return (_addresses,_amounts);\n    }\n    \n    function setProjectClosing() public \n    {\n        require(state != State.Closed,\"Not yet recv required investment\");\n        require(state != State.Fundraising,\"Not yet recv required investment\");\n        require(msg.sender == creator, \"Your not the creator\");\n        projectClosing = true;\n        \n        if(state == State.Successful)\n        {\n            state = State.Completed;\n        }\n\n        checkAllcontributorsApproved();\n    }\n\n    function setClose() public\n    {\n        //used by the investors to show their consense in cancelled or completed state when automatically didnt get the money\n        require(state != State.Closed,\"Already closed\");\n        require(projectClosing != false,\"Already closed\");\n        require(state != State.Fundraising,\"In fundrising state\");\n        require(contributions[msg.sender] > 0,\"Your not a contributor\");\n        require(projectClosing == true,\"project closing flag is not yet set\");\n        contributions[msg.sender] = 0;\n        checkAllcontributorsApproved();\n    }\n\n    function checkAllcontributorsApproved() internal\n    {\n         for(uint256 i = 0;i < contributersAddress.length;i++)\n        {\n           if(contributions[contributersAddress[i]] != 0)\n           {\n               return;\n           }\n        }\n        state = State.Closed;\n    }\n\n    function isProjectClosing() public view returns(bool)\n    {\n        return projectClosing;\n    }\n\n    function getMyTotalContribution() public view returns(uint256)\n    {\n        return contributions[msg.sender];\n    }\n\n    // get details about the project\n    function getSummary()\n        public\n        view\n        returns (\n            address payable,\n            string memory,\n            string memory,\n            uint256,\n            string memory,\n            string memory,\n            uint256,\n            uint256,\n            uint256,\n            State,\n            uint256,\n            string memory\n            \n        )\n    {\n        return (\n            creator,\n            creatorName,\n            phoneNumber,\n            raiseBy,\n            ProjectName,\n            ProjectDescription,\n            GoalAmount,\n            currentBalance,\n            minimunContribution,\n            state,\n            numberOfContributors,\n            landLocation\n\n        );\n    }\n}\n",
  "sourcePath": "/home/adil/final_year_project/farming_using_ai_and_blockchain_front_end/contracts/Crowdfunding.sol",
  "compiler": {
    "name": "solc",
    "version": "0.5.16+commit.9c3226ce.Emscripten.clang"
  },
  "schemaVersion": "3.4.5",
  "updatedAt": "2022-05-29T11:50:19.890Z",
  "networkType": "ethereum",
  "devdoc": {
    "methods": {}
  },
  "userdoc": {
    "methods": {}
  }
}