{
  "contractName": "Project",
  "abi": [
    {
      "inputs": [
        {
          "internalType": "string",
          "name": "_ProjectName",
          "type": "string"
        },
        {
          "internalType": "string",
          "name": "_ProjectDescription",
          "type": "string"
        },
        {
          "internalType": "uint256",
          "name": "_GoalAmount",
          "type": "uint256"
        },
        {
          "internalType": "uint256",
          "name": "_minimunContribution",
          "type": "uint256"
        },
        {
          "internalType": "uint256",
          "name": "_fundRaisingDeadline",
          "type": "uint256"
        },
        {
          "internalType": "address payable",
          "name": "_creator",
          "type": "address"
        }
      ],
      "payable": false,
      "stateMutability": "nonpayable",
      "type": "constructor"
    },
    {
      "constant": true,
      "inputs": [],
      "name": "GoalAmount",
      "outputs": [
        {
          "internalType": "uint256",
          "name": "",
          "type": "uint256"
        }
      ],
      "payable": false,
      "stateMutability": "view",
      "type": "function"
    },
    {
      "constant": true,
      "inputs": [],
      "name": "ProjectDescription",
      "outputs": [
        {
          "internalType": "string",
          "name": "",
          "type": "string"
        }
      ],
      "payable": false,
      "stateMutability": "view",
      "type": "function"
    },
    {
      "constant": true,
      "inputs": [],
      "name": "ProjectName",
      "outputs": [
        {
          "internalType": "string",
          "name": "",
          "type": "string"
        }
      ],
      "payable": false,
      "stateMutability": "view",
      "type": "function"
    },
    {
      "constant": true,
      "inputs": [],
      "name": "completeAt",
      "outputs": [
        {
          "internalType": "uint256",
          "name": "",
          "type": "uint256"
        }
      ],
      "payable": false,
      "stateMutability": "view",
      "type": "function"
    },
    {
      "constant": true,
      "inputs": [
        {
          "internalType": "address",
          "name": "",
          "type": "address"
        }
      ],
      "name": "contributions",
      "outputs": [
        {
          "internalType": "uint256",
          "name": "",
          "type": "uint256"
        }
      ],
      "payable": false,
      "stateMutability": "view",
      "type": "function"
    },
    {
      "constant": true,
      "inputs": [],
      "name": "creator",
      "outputs": [
        {
          "internalType": "address payable",
          "name": "",
          "type": "address"
        }
      ],
      "payable": false,
      "stateMutability": "view",
      "type": "function"
    },
    {
      "constant": true,
      "inputs": [],
      "name": "creatorName",
      "outputs": [
        {
          "internalType": "string",
          "name": "",
          "type": "string"
        }
      ],
      "payable": false,
      "stateMutability": "view",
      "type": "function"
    },
    {
      "constant": true,
      "inputs": [],
      "name": "currentBalance",
      "outputs": [
        {
          "internalType": "uint256",
          "name": "",
          "type": "uint256"
        }
      ],
      "payable": false,
      "stateMutability": "view",
      "type": "function"
    },
    {
      "constant": true,
      "inputs": [],
      "name": "minimunContribution",
      "outputs": [
        {
          "internalType": "uint256",
          "name": "",
          "type": "uint256"
        }
      ],
      "payable": false,
      "stateMutability": "view",
      "type": "function"
    },
    {
      "constant": true,
      "inputs": [],
      "name": "numberOfContributors",
      "outputs": [
        {
          "internalType": "uint256",
          "name": "",
          "type": "uint256"
        }
      ],
      "payable": false,
      "stateMutability": "view",
      "type": "function"
    },
    {
      "constant": true,
      "inputs": [],
      "name": "phoneNumber",
      "outputs": [
        {
          "internalType": "string",
          "name": "",
          "type": "string"
        }
      ],
      "payable": false,
      "stateMutability": "view",
      "type": "function"
    },
    {
      "constant": true,
      "inputs": [],
      "name": "raiseBy",
      "outputs": [
        {
          "internalType": "uint256",
          "name": "",
          "type": "uint256"
        }
      ],
      "payable": false,
      "stateMutability": "view",
      "type": "function"
    },
    {
      "constant": true,
      "inputs": [],
      "name": "state",
      "outputs": [
        {
          "internalType": "enum Project.State",
          "name": "",
          "type": "uint8"
        }
      ],
      "payable": false,
      "stateMutability": "view",
      "type": "function"
    },
    {
      "constant": true,
      "inputs": [
        {
          "internalType": "uint256",
          "name": "",
          "type": "uint256"
        }
      ],
      "name": "withDrawDetailList",
      "outputs": [
        {
          "internalType": "uint256",
          "name": "amount",
          "type": "uint256"
        },
        {
          "internalType": "string",
          "name": "useCase",
          "type": "string"
        },
        {
          "internalType": "uint256",
          "name": "date",
          "type": "uint256"
        }
      ],
      "payable": false,
      "stateMutability": "view",
      "type": "function"
    },
    {
      "constant": false,
      "inputs": [],
      "name": "initialFund",
      "outputs": [],
      "payable": true,
      "stateMutability": "payable",
      "type": "function"
    },
    {
      "constant": false,
      "inputs": [
        {
          "internalType": "string",
          "name": "_creatorName",
          "type": "string"
        },
        {
          "internalType": "string",
          "name": "_phoneNumber",
          "type": "string"
        }
      ],
      "name": "setOwnerDetails",
      "outputs": [],
      "payable": false,
      "stateMutability": "nonpayable",
      "type": "function"
    },
    {
      "constant": false,
      "inputs": [],
      "name": "contibute",
      "outputs": [],
      "payable": true,
      "stateMutability": "payable",
      "type": "function"
    },
    {
      "constant": true,
      "inputs": [],
      "name": "contributorsCount",
      "outputs": [
        {
          "internalType": "uint256",
          "name": "",
          "type": "uint256"
        }
      ],
      "payable": false,
      "stateMutability": "view",
      "type": "function"
    },
    {
      "constant": true,
      "inputs": [],
      "name": "isAContributor",
      "outputs": [
        {
          "internalType": "bool",
          "name": "",
          "type": "bool"
        }
      ],
      "payable": false,
      "stateMutability": "view",
      "type": "function"
    },
    {
      "constant": false,
      "inputs": [],
      "name": "checkIfFundingCompleteOrExpired",
      "outputs": [],
      "payable": false,
      "stateMutability": "nonpayable",
      "type": "function"
    },
    {
      "constant": false,
      "inputs": [],
      "name": "payOut",
      "outputs": [
        {
          "internalType": "bool",
          "name": "",
          "type": "bool"
        }
      ],
      "payable": false,
      "stateMutability": "nonpayable",
      "type": "function"
    },
    {
      "constant": false,
      "inputs": [],
      "name": "cancelTheProject",
      "outputs": [
        {
          "internalType": "bool",
          "name": "",
          "type": "bool"
        }
      ],
      "payable": false,
      "stateMutability": "nonpayable",
      "type": "function"
    },
    {
      "constant": false,
      "inputs": [],
      "name": "refundAll",
      "outputs": [
        {
          "internalType": "bool",
          "name": "",
          "type": "bool"
        }
      ],
      "payable": false,
      "stateMutability": "nonpayable",
      "type": "function"
    },
    {
      "constant": false,
      "inputs": [],
      "name": "getRefund",
      "outputs": [
        {
          "internalType": "bool",
          "name": "",
          "type": "bool"
        }
      ],
      "payable": false,
      "stateMutability": "nonpayable",
      "type": "function"
    },
    {
      "constant": false,
      "inputs": [
        {
          "internalType": "uint256",
          "name": "_amount",
          "type": "uint256"
        },
        {
          "internalType": "string",
          "name": "_useCase",
          "type": "string"
        }
      ],
      "name": "withDraw",
      "outputs": [
        {
          "internalType": "bool",
          "name": "",
          "type": "bool"
        }
      ],
      "payable": false,
      "stateMutability": "nonpayable",
      "type": "function"
    },
    {
      "constant": true,
      "inputs": [],
      "name": "returnAllWithDrawDetails",
      "outputs": [
        {
          "components": [
            {
              "internalType": "uint256",
              "name": "amount",
              "type": "uint256"
            },
            {
              "internalType": "string",
              "name": "useCase",
              "type": "string"
            },
            {
              "internalType": "uint256",
              "name": "date",
              "type": "uint256"
            }
          ],
          "internalType": "struct Project.withDrawDetail[]",
          "name": "",
          "type": "tuple[]"
        }
      ],
      "payable": false,
      "stateMutability": "view",
      "type": "function"
    },
    {
      "constant": true,
      "inputs": [],
      "name": "getContractBalance",
      "outputs": [
        {
          "internalType": "uint256",
          "name": "",
          "type": "uint256"
        }
      ],
      "payable": false,
      "stateMutability": "view",
      "type": "function"
    },
    {
      "constant": true,
      "inputs": [],
      "name": "getSummary",
      "outputs": [
        {
          "internalType": "address payable",
          "name": "",
          "type": "address"
        },
        {
          "internalType": "string",
          "name": "",
          "type": "string"
        },
        {
          "internalType": "string",
          "name": "",
          "type": "string"
        },
        {
          "internalType": "uint256",
          "name": "",
          "type": "uint256"
        },
        {
          "internalType": "string",
          "name": "",
          "type": "string"
        },
        {
          "internalType": "string",
          "name": "",
          "type": "string"
        },
        {
          "internalType": "uint256",
          "name": "",
          "type": "uint256"
        },
        {
          "internalType": "uint256",
          "name": "",
          "type": "uint256"
        },
        {
          "internalType": "uint256",
          "name": "",
          "type": "uint256"
        },
        {
          "internalType": "enum Project.State",
          "name": "",
          "type": "uint8"
        },
        {
          "internalType": "uint256",
          "name": "",
          "type": "uint256"
        }
      ],
      "payable": false,
      "stateMutability": "view",
      "type": "function"
    }
  ],
  "bytecode": "0x60806040523480156200001157600080fd5b506040516200269638038062002696833981810160405262000037919081019062000239565b85600690805190602001906200004f92919062000100565b5084600790805190602001906200006892919062000100565b508360088190555082600a819055506000600981905550816005819055506000600b60006101000a81548160ff02191690836003811115620000a657fe5b021790555080600160006101000a81548173ffffffffffffffffffffffffffffffffffffffff021916908373ffffffffffffffffffffffffffffffffffffffff1602179055506000600e8190555050505050505062000404565b828054600181600116156101000203166002900490600052602060002090601f016020900481019282601f106200014357805160ff191683800117855562000174565b8280016001018555821562000174579182015b828111156200017357825182559160200191906001019062000156565b5b50905062000183919062000187565b5090565b620001ac91905b80821115620001a85760008160009055506001016200018e565b5090565b90565b600081519050620001c081620003d0565b92915050565b600082601f830112620001d857600080fd5b8151620001ef620001e9826200032f565b62000301565b915080825260208301602083018583830111156200020c57600080fd5b620002198382846200039a565b50505092915050565b6000815190506200023381620003ea565b92915050565b60008060008060008060c087890312156200025357600080fd5b600087015167ffffffffffffffff8111156200026e57600080fd5b6200027c89828a01620001c6565b965050602087015167ffffffffffffffff8111156200029a57600080fd5b620002a889828a01620001c6565b9550506040620002bb89828a0162000222565b9450506060620002ce89828a0162000222565b9350506080620002e189828a0162000222565b92505060a0620002f489828a01620001af565b9150509295509295509295565b6000604051905081810181811067ffffffffffffffff821117156200032557600080fd5b8060405250919050565b600067ffffffffffffffff8211156200034757600080fd5b601f19601f8301169050602081019050919050565b6000620003698262000370565b9050919050565b600073ffffffffffffffffffffffffffffffffffffffff82169050919050565b6000819050919050565b60005b83811015620003ba5780820151818401526020810190506200039d565b83811115620003ca576000848401525b50505050565b620003db816200035c565b8114620003e757600080fd5b50565b620003f58162000390565b81146200040157600080fd5b50565b61228280620004146000396000f3fe6080604052600436106101d4576000357c0100000000000000000000000000000000000000000000000000000000900480637a84d23311610109578063c2052403116100a7578063d5f9e6c711610081578063d5f9e6c71461060d578063e25c3f6514610638578063e82a2f8614610642578063ea25213f1461066d576101d4565b8063c20524031461058c578063c452695f146105b7578063ce845d1d146105e2576101d4565b8063a7f33715116100e3578063a7f33715146104ce578063b2d5ae44146104f9578063be0f63f714610524578063c19d93fb14610561576101d4565b80637a84d2331461046357806386f325861461048e5780639628f805146104a5576101d4565b806344ab323b116101765780634ddd0c40116101505780634ddd0c40146103b75780636f9fb98a146103e2578063747f33801461040d5780637569b3d714610438576101d4565b806344ab323b14610322578063459869721461034d5780634c4cea5a1461038c576101d4565b806338e771ab116101b257806338e771ab1461025a5780634051ddac1461028557806342e94c90146102ba5780634377cf65146102f7576101d4565b806302d05d3f146101d95780631f6f90bd1461020457806337f944cc1461022f575b600080fd5b3480156101e557600080fd5b506101ee610677565b6040516101fb9190611e13565b60405180910390f35b34801561021057600080fd5b5061021961069d565b6040516102269190611f4d565b60405180910390f35b34801561023b57600080fd5b5061024461073b565b604051610251919061200f565b60405180910390f35b34801561026657600080fd5b5061026f610741565b60405161027c9190611f17565b60405180910390f35b34801561029157600080fd5b5061029a6108a6565b6040516102b19b9a99989796959493929190611e2e565b60405180910390f35b3480156102c657600080fd5b506102e160048036036102dc91908101906119f2565b610b95565b6040516102ee919061200f565b60405180910390f35b34801561030357600080fd5b5061030c610bad565b604051610319919061200f565b60405180910390f35b34801561032e57600080fd5b50610337610bb3565b604051610344919061200f565b60405180910390f35b34801561035957600080fd5b50610374600480360361036f9190810190611a87565b610bb9565b6040516103839392919061202a565b60405180910390f35b34801561039857600080fd5b506103a1610c88565b6040516103ae919061200f565b60405180910390f35b3480156103c357600080fd5b506103cc610c8e565b6040516103d99190611f4d565b60405180910390f35b3480156103ee57600080fd5b506103f7610d2c565b604051610404919061200f565b60405180910390f35b34801561041957600080fd5b50610422610d4b565b60405161042f9190611f4d565b60405180910390f35b34801561044457600080fd5b5061044d610de9565b60405161045a919061200f565b60405180910390f35b34801561046f57600080fd5b50610478610df3565b6040516104859190611f17565b60405180910390f35b34801561049a57600080fd5b506104a3610ece565b005b3480156104b157600080fd5b506104cc60048036036104c79190810190611a1b565b610f34565b005b3480156104da57600080fd5b506104e3610f66565b6040516104f0919061200f565b60405180910390f35b34801561050557600080fd5b5061050e610f6c565b60405161051b9190611f17565b60405180910390f35b34801561053057600080fd5b5061054b60048036036105469190810190611ab0565b611126565b6040516105589190611f17565b60405180910390f35b34801561056d57600080fd5b506105766112e2565b6040516105839190611f32565b60405180910390f35b34801561059857600080fd5b506105a16112f5565b6040516105ae9190611f17565b60405180910390f35b3480156105c357600080fd5b506105cc611462565b6040516105d99190611f17565b60405180910390f35b3480156105ee57600080fd5b506105f76114bc565b604051610604919061200f565b60405180910390f35b34801561061957600080fd5b506106226114c2565b60405161062f9190611f4d565b60405180910390f35b610640611560565b005b34801561064e57600080fd5b506106576115bc565b6040516106649190611ef5565b60405180910390f35b6106756116d1565b005b600160009054906101000a900473ffffffffffffffffffffffffffffffffffffffff1681565b60028054600181600116156101000203166002900480601f0160208091040260200160405190810160405280929190818152602001828054600181600116156101000203166002900480156107335780601f1061070857610100808354040283529160200191610733565b820191906000526020600020905b81548152906001019060200180831161071657829003601f168201915b505050505081565b60055481565b600080600090505b600d8054905081101561089e576000600d828154811061076557fe5b9060005260206000200160009054906101000a900473ffffffffffffffffffffffffffffffffffffffff1690506000600c60008373ffffffffffffffffffffffffffffffffffffffff1673ffffffffffffffffffffffffffffffffffffffff168152602001908152602001600020549050600081111561088f578173ffffffffffffffffffffffffffffffffffffffff166108fc829081150290604051600060405180830381858888f19350505050158015610825573d6000803e3d6000fd5b50806009600082825403925050819055506000600c60008473ffffffffffffffffffffffffffffffffffffffff1673ffffffffffffffffffffffffffffffffffffffff16815260200190815260200160002081905550600e60008154809291906001900391905055505b50508080600101915050610749565b506001905090565b600060608060006060806000806000806000600160009054906101000a900473ffffffffffffffffffffffffffffffffffffffff166002600360055460066007600854600954600a54600b60009054906101000a900460ff16600e54898054600181600116156101000203166002900480601f0160208091040260200160405190810160405280929190818152602001828054600181600116156101000203166002900480156109975780601f1061096c57610100808354040283529160200191610997565b820191906000526020600020905b81548152906001019060200180831161097a57829003601f168201915b50505050509950888054600181600116156101000203166002900480601f016020809104026020016040519081016040528092919081815260200182805460018160011615610100020316600290048015610a335780601f10610a0857610100808354040283529160200191610a33565b820191906000526020600020905b815481529060010190602001808311610a1657829003601f168201915b50505050509850868054600181600116156101000203166002900480601f016020809104026020016040519081016040528092919081815260200182805460018160011615610100020316600290048015610acf5780601f10610aa457610100808354040283529160200191610acf565b820191906000526020600020905b815481529060010190602001808311610ab257829003601f168201915b50505050509650858054600181600116156101000203166002900480601f016020809104026020016040519081016040528092919081815260200182805460018160011615610100020316600290048015610b6b5780601f10610b4057610100808354040283529160200191610b6b565b820191906000526020600020905b815481529060010190602001808311610b4e57829003601f168201915b505050505095509a509a509a509a509a509a509a509a509a509a509a50909192939495969798999a565b600c6020528060005260406000206000915090505481565b600e5481565b60085481565b60008181548110610bc657fe5b9060005260206000209060030201600091509050806000015490806001018054600181600116156101000203166002900480601f016020809104026020016040519081016040528092919081815260200182805460018160011615610100020316600290048015610c785780601f10610c4d57610100808354040283529160200191610c78565b820191906000526020600020905b815481529060010190602001808311610c5b57829003601f168201915b5050505050908060020154905083565b60045481565b60078054600181600116156101000203166002900480601f016020809104026020016040519081016040528092919081815260200182805460018160011615610100020316600290048015610d245780601f10610cf957610100808354040283529160200191610d24565b820191906000526020600020905b815481529060010190602001808311610d0757829003601f168201915b505050505081565b60003073ffffffffffffffffffffffffffffffffffffffff1631905090565b60038054600181600116156101000203166002900480601f016020809104026020016040519081016040528092919081815260200182805460018160011615610100020316600290048015610de15780601f10610db657610100808354040283529160200191610de1565b820191906000526020600020905b815481529060010190602001808311610dc457829003601f168201915b505050505081565b6000600e54905090565b6000600160009054906101000a900473ffffffffffffffffffffffffffffffffffffffff1673ffffffffffffffffffffffffffffffffffffffff163373ffffffffffffffffffffffffffffffffffffffff1614610e85576040517f08c379a0000000000000000000000000000000000000000000000000000000008152600401610e7c90611faf565b60405180910390fd5b6003600b60006101000a81548160ff02191690836003811115610ea457fe5b021790555060011515610eb5610741565b15151415610ec65760019050610ecb565b600090505b90565b60085460095410610f02576002600b60006101000a81548160ff02191690836003811115610ef857fe5b0217905550610f32565b600554421115610f31576001600b60006101000a81548160ff02191690836003811115610f2b57fe5b02179055505b5b565b8160029080519060200190610f4a92919061182e565b508060039080519060200190610f6192919061182e565b505050565b600a5481565b600080600c60003373ffffffffffffffffffffffffffffffffffffffff1673ffffffffffffffffffffffffffffffffffffffff1681526020019081526020016000205411610fef576040517f08c379a0000000000000000000000000000000000000000000000000000000008152600401610fe690611f8f565b60405180910390fd5b6000600c60003373ffffffffffffffffffffffffffffffffffffffff1673ffffffffffffffffffffffffffffffffffffffff1681526020019081526020016000205490506000600c60003373ffffffffffffffffffffffffffffffffffffffff1673ffffffffffffffffffffffffffffffffffffffff168152602001908152602001600020819055503373ffffffffffffffffffffffffffffffffffffffff166108fc829081150290604051600060405180830381858888f193505050506110ff5780600c60003373ffffffffffffffffffffffffffffffffffffffff1673ffffffffffffffffffffffffffffffffffffffff168152602001908152602001600020819055506000915050611123565b8060095403600981905550600e600081548092919060019003919050555060019150505b90565b6000600160009054906101000a900473ffffffffffffffffffffffffffffffffffffffff1673ffffffffffffffffffffffffffffffffffffffff163373ffffffffffffffffffffffffffffffffffffffff16146111b8576040517f08c379a00000000000000000000000000000000000000000000000000000000081526004016111af90611fcf565b60405180910390fd5b600260038111156111c557fe5b600b60009054906101000a900460ff1660038111156111e057fe5b146111ea57600080fd5b600160009054906101000a900473ffffffffffffffffffffffffffffffffffffffff1673ffffffffffffffffffffffffffffffffffffffff166108fc849081150290604051600060405180830381858888f19350505050156112d75761124e6118ae565b6040518060600160405280858152602001848152602001428152509050600081908060018154018082558091505090600182039060005260206000209060030201600090919290919091506000820151816000015560208201518160010190805190602001906112bf9291906118cf565b506040820151816002015550505060019150506112dc565b600090505b92915050565b600b60009054906101000a900460ff1681565b6000600160009054906101000a900473ffffffffffffffffffffffffffffffffffffffff1673ffffffffffffffffffffffffffffffffffffffff163373ffffffffffffffffffffffffffffffffffffffff1614611387576040517f08c379a000000000000000000000000000000000000000000000000000000000815260040161137e90611fcf565b60405180910390fd5b6002600381111561139457fe5b600b60009054906101000a900460ff1660038111156113af57fe5b146113b957600080fd5b600060095490506000600981905550600160009054906101000a900473ffffffffffffffffffffffffffffffffffffffff1673ffffffffffffffffffffffffffffffffffffffff166108fc829081150290604051600060405180830381858888f193505050501561142e57600191505061145f565b806009819055506002600b60006101000a81548160ff0219169083600381111561145457fe5b021790555060009150505b90565b600080600c60003373ffffffffffffffffffffffffffffffffffffffff1673ffffffffffffffffffffffffffffffffffffffff1681526020019081526020016000205411156114b457600190506114b9565b600090505b90565b60095481565b60068054600181600116156101000203166002900480601f0160208091040260200160405190810160405280929190818152602001828054600181600116156101000203166002900480156115585780601f1061152d57610100808354040283529160200191611558565b820191906000526020600020905b81548152906001019060200180831161153b57829003601f168201915b505050505081565b600160009054906101000a900473ffffffffffffffffffffffffffffffffffffffff1673ffffffffffffffffffffffffffffffffffffffff163373ffffffffffffffffffffffffffffffffffffffff16146115ba57600080fd5b565b60606000805480602002602001604051908101604052809291908181526020016000905b828210156116c8578382906000526020600020906003020160405180606001604052908160008201548152602001600182018054600181600116156101000203166002900480601f0160208091040260200160405190810160405280929190818152602001828054600181600116156101000203166002900480156116a65780601f1061167b576101008083540402835291602001916116a6565b820191906000526020600020905b81548152906001019060200180831161168957829003601f168201915b50505050508152602001600282015481525050815260200190600101906115e0565b50505050905090565b600060038111156116de57fe5b600b60009054906101000a900460ff1660038111156116f957fe5b14611739576040517f08c379a000000000000000000000000000000000000000000000000000000000815260040161173090611f6f565b60405180910390fd5b600a54341161177d576040517f08c379a000000000000000000000000000000000000000000000000000000000815260040161177490611fef565b60405180910390fd5b34600c60003373ffffffffffffffffffffffffffffffffffffffff1673ffffffffffffffffffffffffffffffffffffffff1681526020019081526020016000205401600c60003373ffffffffffffffffffffffffffffffffffffffff1673ffffffffffffffffffffffffffffffffffffffff1681526020019081526020016000208190555034600960008282540192505081905550600e6000815480929190600101919050555061182c610ece565b565b828054600181600116156101000203166002900490600052602060002090601f016020900481019282601f1061186f57805160ff191683800117855561189d565b8280016001018555821561189d579182015b8281111561189c578251825591602001919060010190611881565b5b5090506118aa919061194f565b5090565b60405180606001604052806000815260200160608152602001600081525090565b828054600181600116156101000203166002900490600052602060002090601f016020900481019282601f1061191057805160ff191683800117855561193e565b8280016001018555821561193e579182015b8281111561193d578251825591602001919060010190611922565b5b50905061194b919061194f565b5090565b61197191905b8082111561196d576000816000905550600101611955565b5090565b90565b60008135905061198381612211565b92915050565b600082601f83011261199a57600080fd5b81356119ad6119a882612095565b612068565b915080825260208301602083018583830111156119c957600080fd5b6119d48382846121b1565b50505092915050565b6000813590506119ec81612228565b92915050565b600060208284031215611a0457600080fd5b6000611a1284828501611974565b91505092915050565b60008060408385031215611a2e57600080fd5b600083013567ffffffffffffffff811115611a4857600080fd5b611a5485828601611989565b925050602083013567ffffffffffffffff811115611a7157600080fd5b611a7d85828601611989565b9150509250929050565b600060208284031215611a9957600080fd5b6000611aa7848285016119dd565b91505092915050565b60008060408385031215611ac357600080fd5b6000611ad1858286016119dd565b925050602083013567ffffffffffffffff811115611aee57600080fd5b611afa85828601611989565b9150509250929050565b6000611b108383611da5565b905092915050565b611b2181612144565b82525050565b6000611b32826120d1565b611b3c81856120ff565b935083602082028501611b4e856120c1565b8060005b85811015611b8a5784840389528151611b6b8582611b04565b9450611b76836120f2565b925060208a01995050600181019050611b52565b50829750879550505050505092915050565b611ba581612156565b82525050565b611bb48161219f565b82525050565b6000611bc5826120e7565b611bcf8185612121565b9350611bdf8185602086016121c0565b611be8816121f3565b840191505092915050565b6000611bfe826120dc565b611c088185612110565b9350611c188185602086016121c0565b611c21816121f3565b840191505092915050565b6000611c37826120dc565b611c418185612121565b9350611c518185602086016121c0565b611c5a816121f3565b840191505092915050565b6000611c72601e83612121565b91507f4e6f74207265637620616e79206e657720636f6e747269627574696f6e7300006000830152602082019050919050565b6000611cb2601a83612121565b91507f796f75206469646e277420636f6e7472696275746564207965740000000000006000830152602082019050919050565b6000611cf2601483612121565b91507f596f7572206e6f74207468652063726561746f720000000000000000000000006000830152602082019050919050565b6000611d32601483612121565b91507f796f7572206e6f74207468652063726561746f720000000000000000000000006000830152602082019050919050565b6000611d72602083612121565b91507f73686f756c6420626520677265617465727468616e206d696e20616d6f756e746000830152602082019050919050565b6000606083016000830151611dbd6000860182611df5565b5060208301518482036020860152611dd58282611bf3565b9150506040830151611dea6040860182611df5565b508091505092915050565b611dfe81612195565b82525050565b611e0d81612195565b82525050565b6000602082019050611e286000830184611b18565b92915050565b600061016082019050611e44600083018e611b18565b8181036020830152611e56818d611bba565b90508181036040830152611e6a818c611bba565b9050611e79606083018b611e04565b8181036080830152611e8b818a611bba565b905081810360a0830152611e9f8189611bba565b9050611eae60c0830188611e04565b611ebb60e0830187611e04565b611ec9610100830186611e04565b611ed7610120830185611bab565b611ee5610140830184611e04565b9c9b505050505050505050505050565b60006020820190508181036000830152611f0f8184611b27565b905092915050565b6000602082019050611f2c6000830184611b9c565b92915050565b6000602082019050611f476000830184611bab565b92915050565b60006020820190508181036000830152611f678184611c2c565b905092915050565b60006020820190508181036000830152611f8881611c65565b9050919050565b60006020820190508181036000830152611fa881611ca5565b9050919050565b60006020820190508181036000830152611fc881611ce5565b9050919050565b60006020820190508181036000830152611fe881611d25565b9050919050565b6000602082019050818103600083015261200881611d65565b9050919050565b60006020820190506120246000830184611e04565b92915050565b600060608201905061203f6000830186611e04565b81810360208301526120518185611c2c565b90506120606040830184611e04565b949350505050565b6000604051905081810181811067ffffffffffffffff8211171561208b57600080fd5b8060405250919050565b600067ffffffffffffffff8211156120ac57600080fd5b601f19601f8301169050602081019050919050565b6000819050602082019050919050565b600081519050919050565b600081519050919050565b600081519050919050565b6000602082019050919050565b600082825260208201905092915050565b600082825260208201905092915050565b600082825260208201905092915050565b600061213d82612175565b9050919050565b600061214f82612175565b9050919050565b60008115159050919050565b600081905061217082612204565b919050565b600073ffffffffffffffffffffffffffffffffffffffff82169050919050565b6000819050919050565b60006121aa82612162565b9050919050565b82818337600083830152505050565b60005b838110156121de5780820151818401526020810190506121c3565b838111156121ed576000848401525b50505050565b6000601f19601f8301169050919050565b6004811061220e57fe5b50565b61221a81612132565b811461222557600080fd5b50565b61223181612195565b811461223c57600080fd5b5056fea365627a7a72315820b8b1ba50044010a19fda14c2b0c62f09d5357bb4e796c567c83795d7e357b8f46c6578706572696d656e74616cf564736f6c63430005100040",
  "source": "pragma solidity 0.5.16;\npragma experimental ABIEncoderV2;\n\n// import 'https://github.com/OpenZeppelin/openzeppelin-contracts/blob/master/contracts/math/SafeMath.sol';\n\ncontract Crowdfunding {\n    Project[] private projects;\n    mapping(address => Project[]) public userProjectList;\n\n    function startProject(\n        string calldata _ProjectName,\n        string calldata _ProjectDescription,\n        uint256 _GoalAmount,\n        uint256 _minimunContribution,\n        uint256 durationInDays,\n        string calldata _creatorName,\n        string calldata _phoneNumber\n    ) external {\n        uint256 raiseUntil = now + durationInDays * 1 days;\n        Project newProject = new Project(\n            _ProjectName,\n            _ProjectDescription,\n            _GoalAmount,\n            _minimunContribution,\n            raiseUntil,\n            msg.sender\n        );\n        projects.push(newProject);\n\n        newProject.setOwnerDetails(_creatorName, _phoneNumber);\n        userProjectList[msg.sender].push(newProject);\n        // newProject.initialFund();\n    }\n\n    function numberOfProjects() public view returns (uint256) {\n        return projects.length;\n    }\n\n    function returnAllProjects() external view returns (Project[] memory) {\n        return projects;\n    }\n\n    function getMyprojects() public view returns (Project[] memory) {\n        return userProjectList[msg.sender];\n    }\n}\n\ncontract Project {\n    // using SafeMath for uint256;\n\n    enum State {\n        Fundraising,\n        Expired,\n        Successful,\n        Cancelled\n    }\n\n    struct withDrawDetail {\n        uint256 amount;\n        string useCase;\n        uint256 date;\n    }\n\n    withDrawDetail[] public withDrawDetailList;\n\n    // State variables\n\n    // creator details\n    address payable public creator;\n    string public creatorName;\n    string public phoneNumber;\n    uint256 public completeAt;\n    uint256 public raiseBy;\n\n    //project details\n    string public ProjectName;\n    string public ProjectDescription;\n    uint256 public GoalAmount; // required to reach at least this much, else everyone gets refund\n    uint256 public currentBalance; // update on each contribution\n    uint256 public minimunContribution;\n    State public state; // state of the project (fundraising/expired/successful)\n\n    mapping(address => uint256) public contributions;\n    address payable[] contributersAddress;\n    uint256 public numberOfContributors;\n\n    constructor(\n        string memory _ProjectName,\n        string memory _ProjectDescription,\n        uint256 _GoalAmount,\n        uint256 _minimunContribution,\n        uint256 _fundRaisingDeadline,\n        address payable _creator\n    ) public {\n        ProjectName = _ProjectName;\n        ProjectDescription = _ProjectDescription;\n        GoalAmount = _GoalAmount;\n        minimunContribution = _minimunContribution;\n        currentBalance = 0;\n        raiseBy = _fundRaisingDeadline;\n        state = State.Fundraising;\n        creator = _creator; // set to who calling this\n        numberOfContributors = 0;\n    }\n\n    function initialFund() external payable {\n        require(msg.sender == creator);\n    }\n\n    function setOwnerDetails(\n        string memory _creatorName,\n        string memory _phoneNumber\n    ) public {\n        creatorName = _creatorName;\n        phoneNumber = _phoneNumber;\n    }\n\n    function contibute() public payable {\n        require(state == State.Fundraising, \"Not recv any new contributions\");\n        require(\n            msg.value > minimunContribution,\n            \"should be greaterthan min amount\"\n        );\n        // require((msg.value + currentBalance) <= (GoalAmount + 3000000),\"should be lessthan Goalamount\");\n\n        contributions[msg.sender] = contributions[msg.sender] + msg.value;\n        currentBalance += msg.value;\n        numberOfContributors++;\n        checkIfFundingCompleteOrExpired();\n    }\n\n    function contributorsCount() public view returns (uint256) {\n        return numberOfContributors;\n    }\n\n    function isAContributor() external view returns (bool) {\n        if (contributions[msg.sender] > 0) {\n            return true;\n        }\n        return false;\n    }\n\n    function checkIfFundingCompleteOrExpired() public {\n        if (currentBalance >= GoalAmount) {\n            state = State.Successful;\n        } else if (now > raiseBy) {\n            state = State.Expired;\n        }\n    }\n\n    function payOut() public returns (bool) {\n        require(msg.sender == creator, \"your not the creator\");\n        require(state == State.Successful);\n        uint256 totalRaised = currentBalance;\n        currentBalance = 0;\n\n        if (creator.send(totalRaised)) {\n            return true;\n        } else {\n            currentBalance = totalRaised;\n            state = State.Successful;\n        }\n        return false;\n    }\n\n    function cancelTheProject() public returns (bool) {\n        require(msg.sender == creator, \"Your not the creator\");\n        state = State.Cancelled;\n        if (refundAll() == true) {\n            return true;\n        }\n        return false;\n    }\n\n    function refundAll() public returns (bool) {\n        for (uint256 i = 0; i < contributersAddress.length; i++) {\n            address payable person = contributersAddress[i];\n            uint256 amount = contributions[person];\n            if (amount > 0) {\n                person.transfer(amount);\n                currentBalance -= amount;\n                contributions[person] = 0;\n                numberOfContributors--;\n            }\n        }\n        return true;\n    }\n\n    function getRefund() public returns (bool) {\n        // require(state == State.Expired);\n        require(contributions[msg.sender] > 0, \"you didn't contributed yet\");\n\n        uint256 amountToRefund = contributions[msg.sender];\n        contributions[msg.sender] = 0;\n\n        if (!msg.sender.send(amountToRefund)) {\n            contributions[msg.sender] = amountToRefund;\n            return false;\n        } else {\n            currentBalance = currentBalance - amountToRefund;\n        }\n        numberOfContributors--;\n        return true;\n    }\n\n    function withDraw(uint256 _amount, string memory _useCase)\n        public\n        returns (bool)\n    {\n        require(msg.sender == creator, \"your not the creator\");\n        require(state == State.Successful);\n        if (creator.send(_amount)) {\n            withDrawDetail memory tmp = withDrawDetail(_amount, _useCase, now);\n            withDrawDetailList.push(tmp);\n            return true;\n        } else {\n            return false;\n        }\n    }\n\n    function returnAllWithDrawDetails()\n        public\n        view\n        returns (withDrawDetail[] memory)\n    {\n        return withDrawDetailList;\n    }\n\n    function getContractBalance() public view returns (uint256) {\n        return address(this).balance;\n    }\n\n    // get details about the project\n    function getSummary()\n        public\n        view\n        returns (\n            address payable,\n            string memory,\n            string memory,\n            uint256,\n            string memory,\n            string memory,\n            uint256,\n            uint256,\n            uint256,\n            State,\n            uint256\n        )\n    {\n        return (\n            creator,\n            creatorName,\n            phoneNumber,\n            raiseBy,\n            ProjectName,\n            ProjectDescription,\n            GoalAmount,\n            currentBalance,\n            minimunContribution,\n            state,\n            numberOfContributors\n        );\n    }\n}\n",
  "sourcePath": "/home/adil/final_year_project/farming_using_ai_and_blockchain_front_end/contracts/Crowdfunding.sol",
  "compiler": {
    "name": "solc",
    "version": "0.5.16+commit.9c3226ce.Emscripten.clang"
  },
  "schemaVersion": "3.4.5",
  "updatedAt": "2022-05-02T14:43:26.435Z",
  "devdoc": {
    "methods": {}
  },
  "userdoc": {
    "methods": {}
  }
}