{
  "contractName": "Project",
  "abi": [
    {
      "inputs": [
        {
          "internalType": "string",
          "name": "_ProjectName",
          "type": "string"
        },
        {
          "internalType": "string",
          "name": "_ProjectDescription",
          "type": "string"
        },
        {
          "internalType": "uint256",
          "name": "_GoalAmount",
          "type": "uint256"
        },
        {
          "internalType": "uint256",
          "name": "_minimunContribution",
          "type": "uint256"
        },
        {
          "internalType": "uint256",
          "name": "_fundRaisingDeadline",
          "type": "uint256"
        },
        {
          "internalType": "address payable",
          "name": "_creator",
          "type": "address"
        },
        {
          "internalType": "string",
          "name": "_landLocation",
          "type": "string"
        }
      ],
      "payable": false,
      "stateMutability": "nonpayable",
      "type": "constructor"
    },
    {
      "constant": true,
      "inputs": [],
      "name": "GoalAmount",
      "outputs": [
        {
          "internalType": "uint256",
          "name": "",
          "type": "uint256"
        }
      ],
      "payable": false,
      "stateMutability": "view",
      "type": "function"
    },
    {
      "constant": true,
      "inputs": [],
      "name": "ProjectDescription",
      "outputs": [
        {
          "internalType": "string",
          "name": "",
          "type": "string"
        }
      ],
      "payable": false,
      "stateMutability": "view",
      "type": "function"
    },
    {
      "constant": true,
      "inputs": [],
      "name": "ProjectName",
      "outputs": [
        {
          "internalType": "string",
          "name": "",
          "type": "string"
        }
      ],
      "payable": false,
      "stateMutability": "view",
      "type": "function"
    },
    {
      "constant": true,
      "inputs": [],
      "name": "_crowdFundingParentContract",
      "outputs": [
        {
          "internalType": "contract Crowdfunding",
          "name": "",
          "type": "address"
        }
      ],
      "payable": false,
      "stateMutability": "view",
      "type": "function"
    },
    {
      "constant": true,
      "inputs": [],
      "name": "completeAt",
      "outputs": [
        {
          "internalType": "uint256",
          "name": "",
          "type": "uint256"
        }
      ],
      "payable": false,
      "stateMutability": "view",
      "type": "function"
    },
    {
      "constant": true,
      "inputs": [
        {
          "internalType": "uint256",
          "name": "",
          "type": "uint256"
        }
      ],
      "name": "contributersAddress",
      "outputs": [
        {
          "internalType": "address payable",
          "name": "",
          "type": "address"
        }
      ],
      "payable": false,
      "stateMutability": "view",
      "type": "function"
    },
    {
      "constant": true,
      "inputs": [
        {
          "internalType": "address",
          "name": "",
          "type": "address"
        }
      ],
      "name": "contributions",
      "outputs": [
        {
          "internalType": "uint256",
          "name": "",
          "type": "uint256"
        }
      ],
      "payable": false,
      "stateMutability": "view",
      "type": "function"
    },
    {
      "constant": true,
      "inputs": [],
      "name": "creator",
      "outputs": [
        {
          "internalType": "address payable",
          "name": "",
          "type": "address"
        }
      ],
      "payable": false,
      "stateMutability": "view",
      "type": "function"
    },
    {
      "constant": true,
      "inputs": [],
      "name": "creatorName",
      "outputs": [
        {
          "internalType": "string",
          "name": "",
          "type": "string"
        }
      ],
      "payable": false,
      "stateMutability": "view",
      "type": "function"
    },
    {
      "constant": true,
      "inputs": [],
      "name": "currentBalance",
      "outputs": [
        {
          "internalType": "uint256",
          "name": "",
          "type": "uint256"
        }
      ],
      "payable": false,
      "stateMutability": "view",
      "type": "function"
    },
    {
      "constant": true,
      "inputs": [],
      "name": "landLocation",
      "outputs": [
        {
          "internalType": "string",
          "name": "",
          "type": "string"
        }
      ],
      "payable": false,
      "stateMutability": "view",
      "type": "function"
    },
    {
      "constant": true,
      "inputs": [],
      "name": "minimunContribution",
      "outputs": [
        {
          "internalType": "uint256",
          "name": "",
          "type": "uint256"
        }
      ],
      "payable": false,
      "stateMutability": "view",
      "type": "function"
    },
    {
      "constant": true,
      "inputs": [],
      "name": "numberOfContributors",
      "outputs": [
        {
          "internalType": "uint256",
          "name": "",
          "type": "uint256"
        }
      ],
      "payable": false,
      "stateMutability": "view",
      "type": "function"
    },
    {
      "constant": true,
      "inputs": [],
      "name": "phoneNumber",
      "outputs": [
        {
          "internalType": "string",
          "name": "",
          "type": "string"
        }
      ],
      "payable": false,
      "stateMutability": "view",
      "type": "function"
    },
    {
      "constant": true,
      "inputs": [],
      "name": "raiseBy",
      "outputs": [
        {
          "internalType": "uint256",
          "name": "",
          "type": "uint256"
        }
      ],
      "payable": false,
      "stateMutability": "view",
      "type": "function"
    },
    {
      "constant": true,
      "inputs": [],
      "name": "state",
      "outputs": [
        {
          "internalType": "enum Project.State",
          "name": "",
          "type": "uint8"
        }
      ],
      "payable": false,
      "stateMutability": "view",
      "type": "function"
    },
    {
      "constant": true,
      "inputs": [
        {
          "internalType": "uint256",
          "name": "",
          "type": "uint256"
        }
      ],
      "name": "withDrawDetailList",
      "outputs": [
        {
          "internalType": "uint256",
          "name": "amount",
          "type": "uint256"
        },
        {
          "internalType": "string",
          "name": "useCase",
          "type": "string"
        },
        {
          "internalType": "uint256",
          "name": "date",
          "type": "uint256"
        }
      ],
      "payable": false,
      "stateMutability": "view",
      "type": "function"
    },
    {
      "constant": false,
      "inputs": [],
      "name": "initialFund",
      "outputs": [],
      "payable": true,
      "stateMutability": "payable",
      "type": "function"
    },
    {
      "constant": false,
      "inputs": [
        {
          "internalType": "address",
          "name": "_address",
          "type": "address"
        }
      ],
      "name": "setParentContract",
      "outputs": [],
      "payable": false,
      "stateMutability": "nonpayable",
      "type": "function"
    },
    {
      "constant": false,
      "inputs": [
        {
          "internalType": "string",
          "name": "_creatorName",
          "type": "string"
        },
        {
          "internalType": "string",
          "name": "_phoneNumber",
          "type": "string"
        }
      ],
      "name": "setOwnerDetails",
      "outputs": [],
      "payable": false,
      "stateMutability": "nonpayable",
      "type": "function"
    },
    {
      "constant": false,
      "inputs": [],
      "name": "contibute",
      "outputs": [],
      "payable": true,
      "stateMutability": "payable",
      "type": "function"
    },
    {
      "constant": true,
      "inputs": [],
      "name": "contributorsCount",
      "outputs": [
        {
          "internalType": "uint256",
          "name": "",
          "type": "uint256"
        }
      ],
      "payable": false,
      "stateMutability": "view",
      "type": "function"
    },
    {
      "constant": true,
      "inputs": [],
      "name": "isAContributor",
      "outputs": [
        {
          "internalType": "bool",
          "name": "",
          "type": "bool"
        }
      ],
      "payable": false,
      "stateMutability": "view",
      "type": "function"
    },
    {
      "constant": false,
      "inputs": [],
      "name": "checkIfFundingCompleteOrExpired",
      "outputs": [],
      "payable": false,
      "stateMutability": "nonpayable",
      "type": "function"
    },
    {
      "constant": false,
      "inputs": [],
      "name": "payOut",
      "outputs": [
        {
          "internalType": "bool",
          "name": "",
          "type": "bool"
        }
      ],
      "payable": false,
      "stateMutability": "nonpayable",
      "type": "function"
    },
    {
      "constant": false,
      "inputs": [],
      "name": "cancelTheProject",
      "outputs": [
        {
          "internalType": "bool",
          "name": "",
          "type": "bool"
        }
      ],
      "payable": false,
      "stateMutability": "nonpayable",
      "type": "function"
    },
    {
      "constant": false,
      "inputs": [],
      "name": "refundAll",
      "outputs": [
        {
          "internalType": "bool",
          "name": "",
          "type": "bool"
        }
      ],
      "payable": false,
      "stateMutability": "nonpayable",
      "type": "function"
    },
    {
      "constant": true,
      "inputs": [
        {
          "internalType": "uint256",
          "name": "id",
          "type": "uint256"
        }
      ],
      "name": "getContributor",
      "outputs": [
        {
          "internalType": "address",
          "name": "",
          "type": "address"
        }
      ],
      "payable": false,
      "stateMutability": "view",
      "type": "function"
    },
    {
      "constant": false,
      "inputs": [],
      "name": "getRefund",
      "outputs": [
        {
          "internalType": "bool",
          "name": "",
          "type": "bool"
        }
      ],
      "payable": false,
      "stateMutability": "nonpayable",
      "type": "function"
    },
    {
      "constant": false,
      "inputs": [
        {
          "internalType": "uint256",
          "name": "_amount",
          "type": "uint256"
        },
        {
          "internalType": "string",
          "name": "_useCase",
          "type": "string"
        }
      ],
      "name": "withDraw",
      "outputs": [
        {
          "internalType": "bool",
          "name": "",
          "type": "bool"
        }
      ],
      "payable": false,
      "stateMutability": "nonpayable",
      "type": "function"
    },
    {
      "constant": true,
      "inputs": [],
      "name": "returnAllWithDrawDetails",
      "outputs": [
        {
          "components": [
            {
              "internalType": "uint256",
              "name": "amount",
              "type": "uint256"
            },
            {
              "internalType": "string",
              "name": "useCase",
              "type": "string"
            },
            {
              "internalType": "uint256",
              "name": "date",
              "type": "uint256"
            }
          ],
          "internalType": "struct Project.withDrawDetail[]",
          "name": "",
          "type": "tuple[]"
        }
      ],
      "payable": false,
      "stateMutability": "view",
      "type": "function"
    },
    {
      "constant": true,
      "inputs": [],
      "name": "getContractBalance",
      "outputs": [
        {
          "internalType": "uint256",
          "name": "",
          "type": "uint256"
        }
      ],
      "payable": false,
      "stateMutability": "view",
      "type": "function"
    },
    {
      "constant": true,
      "inputs": [],
      "name": "getContributorsList",
      "outputs": [
        {
          "internalType": "address[]",
          "name": "",
          "type": "address[]"
        },
        {
          "internalType": "uint256[]",
          "name": "",
          "type": "uint256[]"
        }
      ],
      "payable": false,
      "stateMutability": "view",
      "type": "function"
    },
    {
      "constant": true,
      "inputs": [],
      "name": "getSummary",
      "outputs": [
        {
          "internalType": "address payable",
          "name": "",
          "type": "address"
        },
        {
          "internalType": "string",
          "name": "",
          "type": "string"
        },
        {
          "internalType": "string",
          "name": "",
          "type": "string"
        },
        {
          "internalType": "uint256",
          "name": "",
          "type": "uint256"
        },
        {
          "internalType": "string",
          "name": "",
          "type": "string"
        },
        {
          "internalType": "string",
          "name": "",
          "type": "string"
        },
        {
          "internalType": "uint256",
          "name": "",
          "type": "uint256"
        },
        {
          "internalType": "uint256",
          "name": "",
          "type": "uint256"
        },
        {
          "internalType": "uint256",
          "name": "",
          "type": "uint256"
        },
        {
          "internalType": "enum Project.State",
          "name": "",
          "type": "uint8"
        },
        {
          "internalType": "uint256",
          "name": "",
          "type": "uint256"
        },
        {
          "internalType": "string",
          "name": "",
          "type": "string"
        }
      ],
      "payable": false,
      "stateMutability": "view",
      "type": "function"
    }
  ],
  "bytecode": "0x60806040523480156200001157600080fd5b50604051620030b2380380620030b2833981810160405262000037919081019062000253565b86600790805190602001906200004f9291906200011a565b508560089080519060200190620000689291906200011a565b5084600a8190555083600c819055506000600b81905550826006819055506000600d60006101000a81548160ff02191690836003811115620000a657fe5b021790555081600260006101000a81548173ffffffffffffffffffffffffffffffffffffffff021916908373ffffffffffffffffffffffffffffffffffffffff160217905550600060108190555080600990805190602001906200010c9291906200011a565b50505050505050506200044e565b828054600181600116156101000203166002900490600052602060002090601f016020900481019282601f106200015d57805160ff19168380011785556200018e565b828001600101855582156200018e579182015b828111156200018d57825182559160200191906001019062000170565b5b5090506200019d9190620001a1565b5090565b620001c691905b80821115620001c2576000816000905550600101620001a8565b5090565b90565b600081519050620001da816200041a565b92915050565b600082601f830112620001f257600080fd5b815162000209620002038262000379565b6200034b565b915080825260208301602083018583830111156200022657600080fd5b62000233838284620003e4565b50505092915050565b6000815190506200024d8162000434565b92915050565b600080600080600080600060e0888a0312156200026f57600080fd5b600088015167ffffffffffffffff8111156200028a57600080fd5b620002988a828b01620001e0565b975050602088015167ffffffffffffffff811115620002b657600080fd5b620002c48a828b01620001e0565b9650506040620002d78a828b016200023c565b9550506060620002ea8a828b016200023c565b9450506080620002fd8a828b016200023c565b93505060a0620003108a828b01620001c9565b92505060c088015167ffffffffffffffff8111156200032e57600080fd5b6200033c8a828b01620001e0565b91505092959891949750929550565b6000604051905081810181811067ffffffffffffffff821117156200036f57600080fd5b8060405250919050565b600067ffffffffffffffff8211156200039157600080fd5b601f19601f8301169050602081019050919050565b6000620003b382620003ba565b9050919050565b600073ffffffffffffffffffffffffffffffffffffffff82169050919050565b6000819050919050565b60005b8381101562000404578082015181840152602081019050620003e7565b8381111562000414576000848401525b50505050565b6200042581620003a6565b81146200043157600080fd5b50565b6200043f81620003da565b81146200044b57600080fd5b50565b612c54806200045e6000396000f3fe608060405260043610610216576000357c0100000000000000000000000000000000000000000000000000000000900480637a84d2331161012a578063c19d93fb116100bd578063ce845d1d1161008c578063ce845d1d1461074a578063d5f9e6c714610775578063e25c3f65146107a0578063e82a2f86146107aa578063ea25213f146107d557610216565b8063c19d93fb1461068c578063c2052403146106b7578063c452695f146106e2578063c6f5b0e01461070d57610216565b8063a7f33715116100f9578063a7f33715146105cd578063b2d5ae44146105f8578063b59bd59114610623578063be0f63f71461064f57610216565b80637a84d2331461053757806386f32586146105625780639628f805146105795780639c70fe06146105a257610216565b80634377cf65116101ad5780634ddd0c401161017c5780634ddd0c40146104625780636f9fb98a1461048d578063747f3380146104b85780637569b3d7146104e3578063765ccb6b1461050e57610216565b80634377cf65146103a257806344ab323b146103cd57806345986972146103f85780634c4cea5a1461043757610216565b806337f944cc116101e957806337f944cc146102d957806338e771ab146103045780634051ddac1461032f57806342e94c901461036557610216565b806302d05d3f1461021b5780630b75b25d146102465780631f6f90bd146102715780632dc1cc4f1461029c575b600080fd5b34801561022757600080fd5b506102306107df565b60405161023d9190612664565b60405180910390f35b34801561025257600080fd5b5061025b610805565b60405161026891906127f9565b60405180910390f35b34801561027d57600080fd5b5061028661082b565b604051610293919061282f565b60405180910390f35b3480156102a857600080fd5b506102c360048036036102be9190810190612186565b6108c9565b6040516102d09190612664565b60405180910390f35b3480156102e557600080fd5b506102ee610905565b6040516102fb91906128f1565b60405180910390f35b34801561031057600080fd5b5061031961090b565b60405161032691906127de565b60405180910390f35b34801561033b57600080fd5b50610344610a70565b60405161035c9c9b9a999897969594939291906126a8565b60405180910390f35b34801561037157600080fd5b5061038c600480360361038791908101906120f1565b610e02565b60405161039991906128f1565b60405180910390f35b3480156103ae57600080fd5b506103b7610e1a565b6040516103c491906128f1565b60405180910390f35b3480156103d957600080fd5b506103e2610e20565b6040516103ef91906128f1565b60405180910390f35b34801561040457600080fd5b5061041f600480360361041a9190810190612186565b610e26565b60405161042e9392919061290c565b60405180910390f35b34801561044357600080fd5b5061044c610ef5565b60405161045991906128f1565b60405180910390f35b34801561046e57600080fd5b50610477610efb565b604051610484919061282f565b60405180910390f35b34801561049957600080fd5b506104a2610f99565b6040516104af91906128f1565b60405180910390f35b3480156104c457600080fd5b506104cd610fb8565b6040516104da919061282f565b60405180910390f35b3480156104ef57600080fd5b506104f8611056565b60405161050591906128f1565b60405180910390f35b34801561051a57600080fd5b50610535600480360361053091908101906120f1565b611060565b005b34801561054357600080fd5b5061054c6110a4565b60405161055991906127de565b60405180910390f35b34801561056e57600080fd5b5061057761117f565b005b34801561058557600080fd5b506105a0600480360361059b919081019061211a565b6111e5565b005b3480156105ae57600080fd5b506105b7611217565b6040516105c4919061282f565b60405180910390f35b3480156105d957600080fd5b506105e26112b5565b6040516105ef91906128f1565b60405180910390f35b34801561060457600080fd5b5061060d6112bb565b60405161061a91906127de565b60405180910390f35b34801561062f57600080fd5b506106386114db565b604051610646929190612785565b60405180910390f35b34801561065b57600080fd5b50610676600480360361067191908101906121af565b61168a565b60405161068391906127de565b60405180910390f35b34801561069857600080fd5b506106a1611846565b6040516106ae9190612814565b60405180910390f35b3480156106c357600080fd5b506106cc611859565b6040516106d991906127de565b60405180910390f35b3480156106ee57600080fd5b506106f76119c6565b60405161070491906127de565b60405180910390f35b34801561071957600080fd5b50610734600480360361072f9190810190612186565b611a20565b6040516107419190612649565b60405180910390f35b34801561075657600080fd5b5061075f611a61565b60405161076c91906128f1565b60405180910390f35b34801561078157600080fd5b5061078a611a67565b604051610797919061282f565b60405180910390f35b6107a8611b05565b005b3480156107b657600080fd5b506107bf611b61565b6040516107cc91906127bc565b60405180910390f35b6107dd611c76565b005b600260009054906101000a900473ffffffffffffffffffffffffffffffffffffffff1681565b600160009054906101000a900473ffffffffffffffffffffffffffffffffffffffff1681565b60038054600181600116156101000203166002900480601f0160208091040260200160405190810160405280929190818152602001828054600181600116156101000203166002900480156108c15780601f10610896576101008083540402835291602001916108c1565b820191906000526020600020905b8154815290600101906020018083116108a457829003601f168201915b505050505081565b600f81815481106108d657fe5b906000526020600020016000915054906101000a900473ffffffffffffffffffffffffffffffffffffffff1681565b60065481565b600080600090505b600f80549050811015610a68576000600f828154811061092f57fe5b9060005260206000200160009054906101000a900473ffffffffffffffffffffffffffffffffffffffff1690506000600e60008373ffffffffffffffffffffffffffffffffffffffff1673ffffffffffffffffffffffffffffffffffffffff1681526020019081526020016000205490506000811115610a59578173ffffffffffffffffffffffffffffffffffffffff166108fc829081150290604051600060405180830381858888f193505050501580156109ef573d6000803e3d6000fd5b5080600b600082825403925050819055506000600e60008473ffffffffffffffffffffffffffffffffffffffff1673ffffffffffffffffffffffffffffffffffffffff16815260200190815260200160002081905550601060008154809291906001900391905055505b50508080600101915050610913565b506001905090565b6000606080600060608060008060008060006060600260009054906101000a900473ffffffffffffffffffffffffffffffffffffffff166003600460065460076008600a54600b54600c54600d60009054906101000a900460ff1660105460098a8054600181600116156101000203166002900480601f016020809104026020016040519081016040528092919081815260200182805460018160011615610100020316600290048015610b655780601f10610b3a57610100808354040283529160200191610b65565b820191906000526020600020905b815481529060010190602001808311610b4857829003601f168201915b50505050509a50898054600181600116156101000203166002900480601f016020809104026020016040519081016040528092919081815260200182805460018160011615610100020316600290048015610c015780601f10610bd657610100808354040283529160200191610c01565b820191906000526020600020905b815481529060010190602001808311610be457829003601f168201915b50505050509950878054600181600116156101000203166002900480601f016020809104026020016040519081016040528092919081815260200182805460018160011615610100020316600290048015610c9d5780601f10610c7257610100808354040283529160200191610c9d565b820191906000526020600020905b815481529060010190602001808311610c8057829003601f168201915b50505050509750868054600181600116156101000203166002900480601f016020809104026020016040519081016040528092919081815260200182805460018160011615610100020316600290048015610d395780601f10610d0e57610100808354040283529160200191610d39565b820191906000526020600020905b815481529060010190602001808311610d1c57829003601f168201915b50505050509650808054600181600116156101000203166002900480601f016020809104026020016040519081016040528092919081815260200182805460018160011615610100020316600290048015610dd55780601f10610daa57610100808354040283529160200191610dd5565b820191906000526020600020905b815481529060010190602001808311610db857829003601f168201915b505050505090509b509b509b509b509b509b509b509b509b509b509b509b50909192939495969798999a9b565b600e6020528060005260406000206000915090505481565b60105481565b600a5481565b60008181548110610e3357fe5b9060005260206000209060030201600091509050806000015490806001018054600181600116156101000203166002900480601f016020809104026020016040519081016040528092919081815260200182805460018160011615610100020316600290048015610ee55780601f10610eba57610100808354040283529160200191610ee5565b820191906000526020600020905b815481529060010190602001808311610ec857829003601f168201915b5050505050908060020154905083565b60055481565b60088054600181600116156101000203166002900480601f016020809104026020016040519081016040528092919081815260200182805460018160011615610100020316600290048015610f915780601f10610f6657610100808354040283529160200191610f91565b820191906000526020600020905b815481529060010190602001808311610f7457829003601f168201915b505050505081565b60003073ffffffffffffffffffffffffffffffffffffffff1631905090565b60048054600181600116156101000203166002900480601f01602080910402602001604051908101604052809291908181526020018280546001816001161561010002031660029004801561104e5780601f106110235761010080835404028352916020019161104e565b820191906000526020600020905b81548152906001019060200180831161103157829003601f168201915b505050505081565b6000601054905090565b80600160006101000a81548173ffffffffffffffffffffffffffffffffffffffff021916908373ffffffffffffffffffffffffffffffffffffffff16021790555050565b6000600260009054906101000a900473ffffffffffffffffffffffffffffffffffffffff1673ffffffffffffffffffffffffffffffffffffffff163373ffffffffffffffffffffffffffffffffffffffff1614611136576040517f08c379a000000000000000000000000000000000000000000000000000000000815260040161112d90612891565b60405180910390fd5b6003600d60006101000a81548160ff0219169083600381111561115557fe5b02179055506001151561116661090b565b15151415611177576001905061117c565b600090505b90565b600a54600b54106111b3576002600d60006101000a81548160ff021916908360038111156111a957fe5b02179055506111e3565b6006544211156111e2576001600d60006101000a81548160ff021916908360038111156111dc57fe5b02179055505b5b565b81600390805190602001906111fb929190611f2d565b508060049080519060200190611212929190611f2d565b505050565b60098054600181600116156101000203166002900480601f0160208091040260200160405190810160405280929190818152602001828054600181600116156101000203166002900480156112ad5780601f10611282576101008083540402835291602001916112ad565b820191906000526020600020905b81548152906001019060200180831161129057829003601f168201915b505050505081565b600c5481565b600080600e60003373ffffffffffffffffffffffffffffffffffffffff1673ffffffffffffffffffffffffffffffffffffffff168152602001908152602001600020541161133e576040517f08c379a000000000000000000000000000000000000000000000000000000000815260040161133590612871565b60405180910390fd5b6000600381111561134b57fe5b600d60009054906101000a900460ff16600381111561136657fe5b141561137157600080fd5b6002600381111561137e57fe5b600d60009054906101000a900460ff16600381111561139957fe5b14156113a457600080fd5b6000600e60003373ffffffffffffffffffffffffffffffffffffffff1673ffffffffffffffffffffffffffffffffffffffff1681526020019081526020016000205490506000600e60003373ffffffffffffffffffffffffffffffffffffffff1673ffffffffffffffffffffffffffffffffffffffff168152602001908152602001600020819055503373ffffffffffffffffffffffffffffffffffffffff166108fc829081150290604051600060405180830381858888f193505050506114b45780600e60003373ffffffffffffffffffffffffffffffffffffffff1673ffffffffffffffffffffffffffffffffffffffff1681526020019081526020016000208190555060009150506114d8565b80600b5403600b819055506010600081548092919060019003919050555060019150505b90565b6060806060600f805490506040519080825280602002602001820160405280156115145781602001602082028038833980820191505090505b5090506060600f8054905060405190808252806020026020018201604052801561154d5781602001602082028038833980820191505090505b50905060008090505b600f8054905081101561167d57600f818154811061157057fe5b9060005260206000200160009054906101000a900473ffffffffffffffffffffffffffffffffffffffff168382815181106115a757fe5b602002602001019073ffffffffffffffffffffffffffffffffffffffff16908173ffffffffffffffffffffffffffffffffffffffff1681525050600e6000600f83815481106115f257fe5b9060005260206000200160009054906101000a900473ffffffffffffffffffffffffffffffffffffffff1673ffffffffffffffffffffffffffffffffffffffff1673ffffffffffffffffffffffffffffffffffffffff1681526020019081526020016000205482828151811061166457fe5b6020026020010181815250508080600101915050611556565b5081819350935050509091565b6000600260009054906101000a900473ffffffffffffffffffffffffffffffffffffffff1673ffffffffffffffffffffffffffffffffffffffff163373ffffffffffffffffffffffffffffffffffffffff161461171c576040517f08c379a0000000000000000000000000000000000000000000000000000000008152600401611713906128b1565b60405180910390fd5b6002600381111561172957fe5b600d60009054906101000a900460ff16600381111561174457fe5b1461174e57600080fd5b600260009054906101000a900473ffffffffffffffffffffffffffffffffffffffff1673ffffffffffffffffffffffffffffffffffffffff166108fc849081150290604051600060405180830381858888f193505050501561183b576117b2611fad565b604051806060016040528085815260200184815260200142815250905060008190806001815401808255809150509060018203906000526020600020906003020160009091929091909150600082015181600001556020820151816001019080519060200190611823929190611fce565b50604082015181600201555050506001915050611840565b600090505b92915050565b600d60009054906101000a900460ff1681565b6000600260009054906101000a900473ffffffffffffffffffffffffffffffffffffffff1673ffffffffffffffffffffffffffffffffffffffff163373ffffffffffffffffffffffffffffffffffffffff16146118eb576040517f08c379a00000000000000000000000000000000000000000000000000000000081526004016118e2906128b1565b60405180910390fd5b600260038111156118f857fe5b600d60009054906101000a900460ff16600381111561191357fe5b1461191d57600080fd5b6000600b5490506000600b81905550600260009054906101000a900473ffffffffffffffffffffffffffffffffffffffff1673ffffffffffffffffffffffffffffffffffffffff166108fc829081150290604051600060405180830381858888f19350505050156119925760019150506119c3565b80600b819055506002600d60006101000a81548160ff021916908360038111156119b857fe5b021790555060009150505b90565b600080600e60003373ffffffffffffffffffffffffffffffffffffffff1673ffffffffffffffffffffffffffffffffffffffff168152602001908152602001600020541115611a185760019050611a1d565b600090505b90565b6000600f8281548110611a2f57fe5b9060005260206000200160009054906101000a900473ffffffffffffffffffffffffffffffffffffffff169050919050565b600b5481565b60078054600181600116156101000203166002900480601f016020809104026020016040519081016040528092919081815260200182805460018160011615610100020316600290048015611afd5780601f10611ad257610100808354040283529160200191611afd565b820191906000526020600020905b815481529060010190602001808311611ae057829003601f168201915b505050505081565b600260009054906101000a900473ffffffffffffffffffffffffffffffffffffffff1673ffffffffffffffffffffffffffffffffffffffff163373ffffffffffffffffffffffffffffffffffffffff1614611b5f57600080fd5b565b60606000805480602002602001604051908101604052809291908181526020016000905b82821015611c6d578382906000526020600020906003020160405180606001604052908160008201548152602001600182018054600181600116156101000203166002900480601f016020809104026020016040519081016040528092919081815260200182805460018160011615610100020316600290048015611c4b5780601f10611c2057610100808354040283529160200191611c4b565b820191906000526020600020905b815481529060010190602001808311611c2e57829003601f168201915b5050505050815260200160028201548152505081526020019060010190611b85565b50505050905090565b60006003811115611c8357fe5b600d60009054906101000a900460ff166003811115611c9e57fe5b14611cde576040517f08c379a0000000000000000000000000000000000000000000000000000000008152600401611cd590612851565b60405180910390fd5b600c543411611d22576040517f08c379a0000000000000000000000000000000000000000000000000000000008152600401611d19906128d1565b60405180910390fd5b6000600e60003373ffffffffffffffffffffffffffffffffffffffff1673ffffffffffffffffffffffffffffffffffffffff168152602001908152602001600020541415611de357600f3390806001815401808255809150509060018203906000526020600020016000909192909190916101000a81548173ffffffffffffffffffffffffffffffffffffffff021916908373ffffffffffffffffffffffffffffffffffffffff160217905550506010600081548092919060010191905055505b34600e60003373ffffffffffffffffffffffffffffffffffffffff1673ffffffffffffffffffffffffffffffffffffffff1681526020019081526020016000205401600e60003373ffffffffffffffffffffffffffffffffffffffff1673ffffffffffffffffffffffffffffffffffffffff1681526020019081526020016000208190555034600b60008282540192505081905550600160009054906101000a900473ffffffffffffffffffffffffffffffffffffffff1673ffffffffffffffffffffffffffffffffffffffff1663d8111e7033306040518363ffffffff167c0100000000000000000000000000000000000000000000000000000000028152600401611ef192919061267f565b600060405180830381600087803b158015611f0b57600080fd5b505af1158015611f1f573d6000803e3d6000fd5b50505050611f2b61117f565b565b828054600181600116156101000203166002900490600052602060002090601f016020900481019282601f10611f6e57805160ff1916838001178555611f9c565b82800160010185558215611f9c579182015b82811115611f9b578251825591602001919060010190611f80565b5b509050611fa9919061204e565b5090565b60405180606001604052806000815260200160608152602001600081525090565b828054600181600116156101000203166002900490600052602060002090601f016020900481019282601f1061200f57805160ff191683800117855561203d565b8280016001018555821561203d579182015b8281111561203c578251825591602001919060010190612021565b5b50905061204a919061204e565b5090565b61207091905b8082111561206c576000816000905550600101612054565b5090565b90565b60008135905061208281612be3565b92915050565b600082601f83011261209957600080fd5b81356120ac6120a782612977565b61294a565b915080825260208301602083018583830111156120c857600080fd5b6120d3838284612b83565b50505092915050565b6000813590506120eb81612bfa565b92915050565b60006020828403121561210357600080fd5b600061211184828501612073565b91505092915050565b6000806040838503121561212d57600080fd5b600083013567ffffffffffffffff81111561214757600080fd5b61215385828601612088565b925050602083013567ffffffffffffffff81111561217057600080fd5b61217c85828601612088565b9150509250929050565b60006020828403121561219857600080fd5b60006121a6848285016120dc565b91505092915050565b600080604083850312156121c257600080fd5b60006121d0858286016120dc565b925050602083013567ffffffffffffffff8111156121ed57600080fd5b6121f985828601612088565b9150509250929050565b600061220f8383612265565b60208301905092915050565b600061222783836125db565b905092915050565b600061223b838361262b565b60208301905092915050565b61225081612af3565b82525050565b61225f81612a98565b82525050565b61226e81612a86565b82525050565b61227d81612a86565b82525050565b600061228e826129d3565b6122988185612a31565b93506122a3836129a3565b8060005b838110156122d45781516122bb8882612203565b97506122c683612a0a565b9250506001810190506122a7565b5085935050505092915050565b60006122ec826129de565b6122f68185612a42565b935083602082028501612308856129b3565b8060005b858110156123445784840389528151612325858261221b565b945061233083612a17565b925060208a0199505060018101905061230c565b50829750879550505050505092915050565b6000612361826129e9565b61236b8185612a53565b9350612376836129c3565b8060005b838110156123a757815161238e888261222f565b975061239983612a24565b92505060018101905061237a565b5085935050505092915050565b6123bd81612aaa565b82525050565b6123cc81612b05565b82525050565b6123db81612b29565b82525050565b6123ea81612b4d565b82525050565b60006123fb826129ff565b6124058185612a75565b9350612415818560208601612b92565b61241e81612bc5565b840191505092915050565b6000612434826129f4565b61243e8185612a64565b935061244e818560208601612b92565b61245781612bc5565b840191505092915050565b600061246d826129f4565b6124778185612a75565b9350612487818560208601612b92565b61249081612bc5565b840191505092915050565b60006124a8601e83612a75565b91507f4e6f74207265637620616e79206e657720636f6e747269627574696f6e7300006000830152602082019050919050565b60006124e8601a83612a75565b91507f796f75206469646e277420636f6e7472696275746564207965740000000000006000830152602082019050919050565b6000612528601483612a75565b91507f596f7572206e6f74207468652063726561746f720000000000000000000000006000830152602082019050919050565b6000612568601483612a75565b91507f796f7572206e6f74207468652063726561746f720000000000000000000000006000830152602082019050919050565b60006125a8602083612a75565b91507f73686f756c6420626520677265617465727468616e206d696e20616d6f756e746000830152602082019050919050565b60006060830160008301516125f3600086018261262b565b506020830151848203602086015261260b8282612429565b9150506040830151612620604086018261262b565b508091505092915050565b61263481612ae9565b82525050565b61264381612ae9565b82525050565b600060208201905061265e6000830184612274565b92915050565b60006020820190506126796000830184612256565b92915050565b60006040820190506126946000830185612247565b6126a160208301846123d2565b9392505050565b6000610180820190506126be600083018f612256565b81810360208301526126d0818e6123f0565b905081810360408301526126e4818d6123f0565b90506126f3606083018c61263a565b8181036080830152612705818b6123f0565b905081810360a0830152612719818a6123f0565b905061272860c083018961263a565b61273560e083018861263a565b61274361010083018761263a565b6127516101208301866123e1565b61275f61014083018561263a565b81810361016083015261277281846123f0565b90509d9c50505050505050505050505050565b6000604082019050818103600083015261279f8185612283565b905081810360208301526127b38184612356565b90509392505050565b600060208201905081810360008301526127d681846122e1565b905092915050565b60006020820190506127f360008301846123b4565b92915050565b600060208201905061280e60008301846123c3565b92915050565b600060208201905061282960008301846123e1565b92915050565b600060208201905081810360008301526128498184612462565b905092915050565b6000602082019050818103600083015261286a8161249b565b9050919050565b6000602082019050818103600083015261288a816124db565b9050919050565b600060208201905081810360008301526128aa8161251b565b9050919050565b600060208201905081810360008301526128ca8161255b565b9050919050565b600060208201905081810360008301526128ea8161259b565b9050919050565b6000602082019050612906600083018461263a565b92915050565b6000606082019050612921600083018661263a565b81810360208301526129338185612462565b9050612942604083018461263a565b949350505050565b6000604051905081810181811067ffffffffffffffff8211171561296d57600080fd5b8060405250919050565b600067ffffffffffffffff82111561298e57600080fd5b601f19601f8301169050602081019050919050565b6000819050602082019050919050565b6000819050602082019050919050565b6000819050602082019050919050565b600081519050919050565b600081519050919050565b600081519050919050565b600081519050919050565b600081519050919050565b6000602082019050919050565b6000602082019050919050565b6000602082019050919050565b600082825260208201905092915050565b600082825260208201905092915050565b600082825260208201905092915050565b600082825260208201905092915050565b600082825260208201905092915050565b6000612a9182612ac9565b9050919050565b6000612aa382612ac9565b9050919050565b60008115159050919050565b6000819050612ac482612bd6565b919050565b600073ffffffffffffffffffffffffffffffffffffffff82169050919050565b6000819050919050565b6000612afe82612b5f565b9050919050565b6000612b1082612b17565b9050919050565b6000612b2282612ac9565b9050919050565b6000612b3482612b3b565b9050919050565b6000612b4682612ac9565b9050919050565b6000612b5882612ab6565b9050919050565b6000612b6a82612b71565b9050919050565b6000612b7c82612ac9565b9050919050565b82818337600083830152505050565b60005b83811015612bb0578082015181840152602081019050612b95565b83811115612bbf576000848401525b50505050565b6000601f19601f8301169050919050565b60048110612be057fe5b50565b612bec81612a86565b8114612bf757600080fd5b50565b612c0381612ae9565b8114612c0e57600080fd5b5056fea365627a7a72315820486deebec0b478e55a1cc596deabf43df5b385bdf41816b189b618a77d1ef6bf6c6578706572696d656e74616cf564736f6c63430005100040",
  "source": "pragma solidity 0.5.16;\npragma experimental ABIEncoderV2;\n\n// import 'https://github.com/OpenZeppelin/openzeppelin-contracts/blob/master/contracts/math/SafeMath.sol';\n\ncontract Crowdfunding {\n    Project[] private projects;\n    mapping(address => Project[]) public userProjectList;\n\n    //stroing details about the investors contributed project and their contribution amount\n\n    // first address -> user address, second -> project address , uint256 -> contribution\n    mapping(address => mapping(address => bool))\n        internal investorContributionsMAP; // it used only for checking purpose if this record already exist or not\n    mapping(address => address[]) internal investorContributions;\n\n    function createAnewContribution(address _user, Project _address) public {\n        if (!investorContributionsMAP[_user][address(_address)]) {\n            investorContributionsMAP[_user][address(_address)] = true;\n            investorContributions[_user].push(address(_address));\n        }\n    }\n\n    //rice,nothing,10,1,4,adil,8090,new location\n    function startProject(\n        string memory _ProjectName,\n        string memory _ProjectDescription,\n        uint256 _GoalAmount,\n        uint256 _minimunContribution,\n        uint256 durationInDays,\n        string memory _creatorName,\n        string memory _phoneNumber,\n        string memory _landLocation\n    ) public {\n        uint256 raiseUntil = now + durationInDays * 1 days;\n        Project newProject = new Project(\n            _ProjectName,\n            _ProjectDescription,\n            _GoalAmount,\n            _minimunContribution,\n            raiseUntil,\n            msg.sender,\n            _landLocation\n        );\n        newProject.setParentContract(address(this));\n        projects.push(newProject);\n\n        newProject.setOwnerDetails(_creatorName, _phoneNumber);\n        userProjectList[msg.sender].push(newProject);\n        // newProject.initialFund();\n    }\n\n    function numberOfProjects() public view returns (uint256) {\n        return projects.length;\n    }\n\n    function returnAllProjects() external view returns (Project[] memory) {\n        return projects;\n    }\n\n    function getMyprojects() public view returns (Project[] memory) {\n        return userProjectList[msg.sender];\n    }\n\n    function getMyContributedProjects() public view returns (address[] memory) {\n        return investorContributions[msg.sender];\n    }\n}\n\ncontract Project {\n    // using SafeMath for uint256;\n\n    enum State {\n        Fundraising,\n        Expired,\n        Successful,\n        Cancelled\n    }\n\n    struct withDrawDetail {\n        uint256 amount;\n        string useCase;\n        uint256 date;\n    }\n\n    withDrawDetail[] public withDrawDetailList;\n\n    //parent contract address\n    Crowdfunding public _crowdFundingParentContract;\n\n    // State variables\n\n    // creator details\n    address payable public creator;\n    string public creatorName;\n    string public phoneNumber;\n    uint256 public completeAt;\n    uint256 public raiseBy;\n\n    //project details\n    string public ProjectName;\n    string public ProjectDescription;\n    string public landLocation;\n    uint256 public GoalAmount; // required to reach at least this much, else everyone gets refund\n    uint256 public currentBalance; // update on each contribution\n    uint256 public minimunContribution;\n    State public state; // state of the project (fundraising/expired/successful)\n\n    mapping(address => uint256) public contributions;\n    address payable[] public contributersAddress;\n    uint256 public numberOfContributors;\n\n    constructor(\n        string memory _ProjectName,\n        string memory _ProjectDescription,\n        uint256 _GoalAmount,\n        uint256 _minimunContribution,\n        uint256 _fundRaisingDeadline,\n        address payable _creator,\n        string memory _landLocation\n    ) public {\n        ProjectName = _ProjectName;\n        ProjectDescription = _ProjectDescription;\n        GoalAmount = _GoalAmount;\n        minimunContribution = _minimunContribution;\n        currentBalance = 0;\n        raiseBy = _fundRaisingDeadline;\n        state = State.Fundraising;\n        creator = _creator; // set to who calling this\n        numberOfContributors = 0;\n        landLocation = _landLocation;\n    }\n\n    function initialFund() external payable {\n        require(msg.sender == creator);\n    }\n\n    function setParentContract(address _address) public {\n        _crowdFundingParentContract = Crowdfunding(_address);\n    }\n\n    function setOwnerDetails(\n        string memory _creatorName,\n        string memory _phoneNumber\n    ) public {\n        creatorName = _creatorName;\n        phoneNumber = _phoneNumber;\n    }\n\n    function contibute() public payable {\n        // checking this project is expired or not on each contribution\n        // checkIfFundingCompleteOrExpired();\n        require(state == State.Fundraising, \"Not recv any new contributions\");\n        require(\n            msg.value > minimunContribution,\n            \"should be greaterthan min amount\"\n        );\n        // require((msg.value + currentBalance) <= (GoalAmount + 3000000),\"should be lessthan Goalamount\");\n\n        if (contributions[msg.sender] == 0) {\n            contributersAddress.push(msg.sender);\n            numberOfContributors++;\n        }\n        contributions[msg.sender] = contributions[msg.sender] + msg.value;\n        currentBalance += msg.value;\n\n        // adding the contribution details into parent contract mapping\n        _crowdFundingParentContract.createAnewContribution(msg.sender, this);\n        // checking this project is expired or not on each contribution\n        checkIfFundingCompleteOrExpired();\n    }\n\n    function contributorsCount() public view returns (uint256) {\n        return numberOfContributors;\n    }\n\n    function isAContributor() external view returns (bool) {\n        if (contributions[msg.sender] > 0) {\n            return true;\n        }\n        return false;\n    }\n\n    function checkIfFundingCompleteOrExpired() public {\n        if (currentBalance >= GoalAmount) {\n            state = State.Successful;\n        } else if (now > raiseBy) {\n            state = State.Expired;\n        }\n    }\n\n    function payOut() public returns (bool) {\n        require(msg.sender == creator, \"your not the creator\");\n        require(state == State.Successful);\n        uint256 totalRaised = currentBalance;\n        currentBalance = 0;\n\n        if (creator.send(totalRaised)) {\n            return true;\n        } else {\n            currentBalance = totalRaised;\n            state = State.Successful;\n        }\n        return false;\n    }\n\n    function cancelTheProject() public returns (bool) {\n        require(msg.sender == creator, \"Your not the creator\");\n        state = State.Cancelled;\n        if (refundAll() == true) {\n            return true;\n        }\n        return false;\n    }\n\n    function refundAll() public returns (bool) {\n        for (uint256 i = 0; i < contributersAddress.length; i++) {\n            address payable person = contributersAddress[i];\n            uint256 amount = contributions[person];\n            if (amount > 0) {\n                person.transfer(amount);\n                currentBalance -= amount;\n                contributions[person] = 0;\n                numberOfContributors--;\n            }\n        }\n        return true;\n    }\n\n    function getContributor(uint256 id) public view returns (address) {\n        return contributersAddress[id];\n    }\n\n    function getRefund() public returns (bool) {\n        require(contributions[msg.sender] > 0, \"you didn't contributed yet\");\n        require(state != State.Fundraising); // won't get refund until the project expired or cancelled\n        require(state != State.Successful);\n\n        uint256 amountToRefund = contributions[msg.sender];\n        contributions[msg.sender] = 0;\n\n        if (!msg.sender.send(amountToRefund)) {\n            contributions[msg.sender] = amountToRefund;\n            return false;\n        } else {\n            currentBalance = currentBalance - amountToRefund;\n        }\n        numberOfContributors--;\n        return true;\n    }\n\n    function withDraw(uint256 _amount, string memory _useCase)\n        public\n        returns (bool)\n    {\n        // withdraw amount for a specific use case\n        require(msg.sender == creator, \"your not the creator\");\n        require(state == State.Successful);\n        if (creator.send(_amount)) {\n            withDrawDetail memory tmp = withDrawDetail(_amount, _useCase, now);\n            withDrawDetailList.push(tmp);\n            return true;\n        } else {\n            return false;\n        }\n    }\n\n    function returnAllWithDrawDetails()\n        public\n        view\n        returns (withDrawDetail[] memory)\n    {\n        return withDrawDetailList;\n    }\n\n    function getContractBalance() public view returns (uint256) {\n        return address(this).balance;\n    }\n\n    function getContributorsList()\n        public\n        view\n        returns (address[] memory, uint256[] memory)\n    {\n        address[] memory _addresses = new address[](contributersAddress.length);\n        uint256[] memory _amounts = new uint256[](contributersAddress.length);\n        for (uint256 i = 0; i < contributersAddress.length; i++) {\n            _addresses[i] = contributersAddress[i];\n            _amounts[i] = contributions[contributersAddress[i]];\n        }\n        return (_addresses, _amounts);\n    }\n\n    // get details about the project\n    function getSummary()\n        public\n        view\n        returns (\n            address payable,\n            string memory,\n            string memory,\n            uint256,\n            string memory,\n            string memory,\n            uint256,\n            uint256,\n            uint256,\n            State,\n            uint256,\n            string memory\n        )\n    {\n        return (\n            creator,\n            creatorName,\n            phoneNumber,\n            raiseBy,\n            ProjectName,\n            ProjectDescription,\n            GoalAmount,\n            currentBalance,\n            minimunContribution,\n            state,\n            numberOfContributors,\n            landLocation\n        );\n    }\n}\n",
  "sourcePath": "/home/adil/final_year_project/farming_using_ai_and_blockchain_front_end/contracts/Crowdfunding.sol",
  "compiler": {
    "name": "solc",
    "version": "0.5.16+commit.9c3226ce.Emscripten.clang"
  },
  "schemaVersion": "3.4.5",
  "updatedAt": "2022-05-23T15:20:07.700Z",
  "devdoc": {
    "methods": {}
  },
  "userdoc": {
    "methods": {}
  }
}